{
  "_format": "hh-sol-artifact-1",
  "contractName": "TwoBrothersAndOneLumbo",
  "sourceName": "contracts/TwoBrothersAndOneLumbo.sol",
  "abi": [
    {
      "inputs": [
        {
          "internalType": "address",
          "name": "_treasuryAddress",
          "type": "address"
        },
        {
          "internalType": "address",
          "name": "_usdt",
          "type": "address"
        },
        {
          "internalType": "uint256",
          "name": "_royalty",
          "type": "uint256"
        }
      ],
      "stateMutability": "nonpayable",
      "type": "constructor"
    },
    {
      "anonymous": false,
      "inputs": [
        {
          "indexed": true,
          "internalType": "address",
          "name": "owner",
          "type": "address"
        },
        {
          "indexed": true,
          "internalType": "address",
          "name": "approved",
          "type": "address"
        },
        {
          "indexed": true,
          "internalType": "uint256",
          "name": "tokenId",
          "type": "uint256"
        }
      ],
      "name": "Approval",
      "type": "event"
    },
    {
      "anonymous": false,
      "inputs": [
        {
          "indexed": true,
          "internalType": "address",
          "name": "owner",
          "type": "address"
        },
        {
          "indexed": true,
          "internalType": "address",
          "name": "operator",
          "type": "address"
        },
        {
          "indexed": false,
          "internalType": "bool",
          "name": "approved",
          "type": "bool"
        }
      ],
      "name": "ApprovalForAll",
      "type": "event"
    },
    {
      "anonymous": false,
      "inputs": [
        {
          "indexed": false,
          "internalType": "uint256",
          "name": "id",
          "type": "uint256"
        },
        {
          "indexed": true,
          "internalType": "address",
          "name": "buyer",
          "type": "address"
        },
        {
          "indexed": false,
          "internalType": "uint256",
          "name": "price",
          "type": "uint256"
        }
      ],
      "name": "ItemSold",
      "type": "event"
    },
    {
      "anonymous": false,
      "inputs": [
        {
          "indexed": true,
          "internalType": "uint256",
          "name": "tokenId",
          "type": "uint256"
        },
        {
          "indexed": false,
          "internalType": "address",
          "name": "seller",
          "type": "address"
        },
        {
          "indexed": false,
          "internalType": "address",
          "name": "owner",
          "type": "address"
        },
        {
          "indexed": false,
          "internalType": "uint256",
          "name": "price",
          "type": "uint256"
        },
        {
          "indexed": false,
          "internalType": "bool",
          "name": "sold",
          "type": "bool"
        }
      ],
      "name": "MarketItemCreated",
      "type": "event"
    },
    {
      "anonymous": false,
      "inputs": [
        {
          "indexed": false,
          "internalType": "uint256",
          "name": "tokenId",
          "type": "uint256"
        },
        {
          "indexed": false,
          "internalType": "address",
          "name": "beneficiary",
          "type": "address"
        },
        {
          "indexed": false,
          "internalType": "string",
          "name": "tokenUri",
          "type": "string"
        },
        {
          "indexed": false,
          "internalType": "address",
          "name": "minter",
          "type": "address"
        }
      ],
      "name": "Minted",
      "type": "event"
    },
    {
      "anonymous": false,
      "inputs": [
        {
          "indexed": true,
          "internalType": "address",
          "name": "previousOwner",
          "type": "address"
        },
        {
          "indexed": true,
          "internalType": "address",
          "name": "newOwner",
          "type": "address"
        }
      ],
      "name": "OwnershipTransferred",
      "type": "event"
    },
    {
      "anonymous": false,
      "inputs": [
        {
          "indexed": true,
          "internalType": "uint256",
          "name": "updatedRoyalty",
          "type": "uint256"
        }
      ],
      "name": "RoyaltyUpdated",
      "type": "event"
    },
    {
      "anonymous": false,
      "inputs": [
        {
          "indexed": true,
          "internalType": "address",
          "name": "from",
          "type": "address"
        },
        {
          "indexed": true,
          "internalType": "address",
          "name": "to",
          "type": "address"
        },
        {
          "indexed": true,
          "internalType": "uint256",
          "name": "tokenId",
          "type": "uint256"
        }
      ],
      "name": "Transfer",
      "type": "event"
    },
    {
      "inputs": [],
      "name": "USDT",
      "outputs": [
        {
          "internalType": "contract IERC20",
          "name": "",
          "type": "address"
        }
      ],
      "stateMutability": "view",
      "type": "function"
    },
    {
      "inputs": [
        {
          "internalType": "address",
          "name": "to",
          "type": "address"
        },
        {
          "internalType": "uint256",
          "name": "tokenId",
          "type": "uint256"
        }
      ],
      "name": "approve",
      "outputs": [],
      "stateMutability": "nonpayable",
      "type": "function"
    },
    {
      "inputs": [],
      "name": "artistRoyalty",
      "outputs": [
        {
          "internalType": "uint256",
          "name": "",
          "type": "uint256"
        }
      ],
      "stateMutability": "view",
      "type": "function"
    },
    {
      "inputs": [
        {
          "internalType": "address",
          "name": "owner",
          "type": "address"
        }
      ],
      "name": "balanceOf",
      "outputs": [
        {
          "internalType": "uint256",
          "name": "",
          "type": "uint256"
        }
      ],
      "stateMutability": "view",
      "type": "function"
    },
    {
      "inputs": [
        {
          "internalType": "uint256",
          "name": "_tokenId",
          "type": "uint256"
        }
      ],
      "name": "buyItem",
      "outputs": [],
      "stateMutability": "nonpayable",
      "type": "function"
    },
    {
      "inputs": [],
      "name": "fetchMarketItems",
      "outputs": [
        {
          "components": [
            {
              "internalType": "uint256",
              "name": "tokenId",
              "type": "uint256"
            },
            {
              "internalType": "address",
              "name": "seller",
              "type": "address"
            },
            {
              "internalType": "address",
              "name": "owner",
              "type": "address"
            },
            {
              "internalType": "uint256",
              "name": "price",
              "type": "uint256"
            },
            {
              "internalType": "bool",
              "name": "sold",
              "type": "bool"
            }
          ],
          "internalType": "struct TwoBrothersAndOneLumbo.MarketItem[]",
          "name": "",
          "type": "tuple[]"
        }
      ],
      "stateMutability": "view",
      "type": "function"
    },
    {
      "inputs": [
        {
          "internalType": "uint256",
          "name": "tokenId",
          "type": "uint256"
        }
      ],
      "name": "getApproved",
      "outputs": [
        {
          "internalType": "address",
          "name": "",
          "type": "address"
        }
      ],
      "stateMutability": "view",
      "type": "function"
    },
    {
      "inputs": [
        {
          "internalType": "uint256",
          "name": "",
          "type": "uint256"
        }
      ],
      "name": "idToMarketItem",
      "outputs": [
        {
          "internalType": "uint256",
          "name": "tokenId",
          "type": "uint256"
        },
        {
          "internalType": "address",
          "name": "seller",
          "type": "address"
        },
        {
          "internalType": "address",
          "name": "owner",
          "type": "address"
        },
        {
          "internalType": "uint256",
          "name": "price",
          "type": "uint256"
        },
        {
          "internalType": "bool",
          "name": "sold",
          "type": "bool"
        }
      ],
      "stateMutability": "view",
      "type": "function"
    },
    {
      "inputs": [
        {
          "internalType": "address",
          "name": "owner",
          "type": "address"
        },
        {
          "internalType": "address",
          "name": "operator",
          "type": "address"
        }
      ],
      "name": "isApprovedForAll",
      "outputs": [
        {
          "internalType": "bool",
          "name": "",
          "type": "bool"
        }
      ],
      "stateMutability": "view",
      "type": "function"
    },
    {
      "inputs": [
        {
          "internalType": "uint256",
          "name": "id",
          "type": "uint256"
        }
      ],
      "name": "isSold",
      "outputs": [
        {
          "internalType": "bool",
          "name": "",
          "type": "bool"
        }
      ],
      "stateMutability": "view",
      "type": "function"
    },
    {
      "inputs": [
        {
          "internalType": "string[]",
          "name": "_tokenUris",
          "type": "string[]"
        },
        {
          "internalType": "uint256[]",
          "name": "_pricePerItem",
          "type": "uint256[]"
        },
        {
          "internalType": "address[]",
          "name": "_owners",
          "type": "address[]"
        }
      ],
      "name": "mintTokens",
      "outputs": [],
      "stateMutability": "nonpayable",
      "type": "function"
    },
    {
      "inputs": [],
      "name": "name",
      "outputs": [
        {
          "internalType": "string",
          "name": "",
          "type": "string"
        }
      ],
      "stateMutability": "view",
      "type": "function"
    },
    {
      "inputs": [],
      "name": "owner",
      "outputs": [
        {
          "internalType": "address",
          "name": "",
          "type": "address"
        }
      ],
      "stateMutability": "view",
      "type": "function"
    },
    {
      "inputs": [
        {
          "internalType": "uint256",
          "name": "tokenId",
          "type": "uint256"
        }
      ],
      "name": "ownerOf",
      "outputs": [
        {
          "internalType": "address",
          "name": "",
          "type": "address"
        }
      ],
      "stateMutability": "view",
      "type": "function"
    },
    {
      "inputs": [],
      "name": "renounceOwnership",
      "outputs": [],
      "stateMutability": "nonpayable",
      "type": "function"
    },
    {
      "inputs": [
        {
          "internalType": "address",
          "name": "from",
          "type": "address"
        },
        {
          "internalType": "address",
          "name": "to",
          "type": "address"
        },
        {
          "internalType": "uint256",
          "name": "tokenId",
          "type": "uint256"
        }
      ],
      "name": "safeTransferFrom",
      "outputs": [],
      "stateMutability": "nonpayable",
      "type": "function"
    },
    {
      "inputs": [
        {
          "internalType": "address",
          "name": "from",
          "type": "address"
        },
        {
          "internalType": "address",
          "name": "to",
          "type": "address"
        },
        {
          "internalType": "uint256",
          "name": "tokenId",
          "type": "uint256"
        },
        {
          "internalType": "bytes",
          "name": "data",
          "type": "bytes"
        }
      ],
      "name": "safeTransferFrom",
      "outputs": [],
      "stateMutability": "nonpayable",
      "type": "function"
    },
    {
      "inputs": [
        {
          "internalType": "address",
          "name": "operator",
          "type": "address"
        },
        {
          "internalType": "bool",
          "name": "approved",
          "type": "bool"
        }
      ],
      "name": "setApprovalForAll",
      "outputs": [],
      "stateMutability": "nonpayable",
      "type": "function"
    },
    {
      "inputs": [
        {
          "internalType": "bytes4",
          "name": "interfaceId",
          "type": "bytes4"
        }
      ],
      "name": "supportsInterface",
      "outputs": [
        {
          "internalType": "bool",
          "name": "",
          "type": "bool"
        }
      ],
      "stateMutability": "view",
      "type": "function"
    },
    {
      "inputs": [],
      "name": "symbol",
      "outputs": [
        {
          "internalType": "string",
          "name": "",
          "type": "string"
        }
      ],
      "stateMutability": "view",
      "type": "function"
    },
    {
      "inputs": [
        {
          "internalType": "uint256",
          "name": "tokenId",
          "type": "uint256"
        }
      ],
      "name": "tokenURI",
      "outputs": [
        {
          "internalType": "string",
          "name": "",
          "type": "string"
        }
      ],
      "stateMutability": "view",
      "type": "function"
    },
    {
      "inputs": [
        {
          "internalType": "address",
          "name": "from",
          "type": "address"
        },
        {
          "internalType": "address",
          "name": "to",
          "type": "address"
        },
        {
          "internalType": "uint256",
          "name": "tokenId",
          "type": "uint256"
        }
      ],
      "name": "transferFrom",
      "outputs": [],
      "stateMutability": "nonpayable",
      "type": "function"
    },
    {
      "inputs": [
        {
          "internalType": "address",
          "name": "newOwner",
          "type": "address"
        }
      ],
      "name": "transferOwnership",
      "outputs": [],
      "stateMutability": "nonpayable",
      "type": "function"
    },
    {
      "inputs": [],
      "name": "treasury",
      "outputs": [
        {
          "internalType": "address",
          "name": "",
          "type": "address"
        }
      ],
      "stateMutability": "view",
      "type": "function"
    },
    {
      "inputs": [
        {
          "internalType": "uint256",
          "name": "_royalty",
          "type": "uint256"
        }
      ],
      "name": "updateArtistRoyalty",
      "outputs": [],
      "stateMutability": "nonpayable",
      "type": "function"
    }
  ],
  "bytecode": "0x60806040523480156200001157600080fd5b5060405162004c8838038062004c88833981810160405281019062000037919062000362565b6040518060400160405280601a81526020017f54776f2042726f746865727320616e64204f6e65204c756d626f0000000000008152506040518060400160405280600581526020017f5442414f4c0000000000000000000000000000000000000000000000000000008152508160009080519060200190620000bb92919062000284565b508060019080519060200190620000d492919062000284565b505050620000f7620000eb620001a060201b60201c565b620001a860201b60201c565b82600b60006101000a81548173ffffffffffffffffffffffffffffffffffffffff021916908373ffffffffffffffffffffffffffffffffffffffff16021790555081600960006101000a81548173ffffffffffffffffffffffffffffffffffffffff021916908373ffffffffffffffffffffffffffffffffffffffff16021790555080600a819055506200019760086200026e60201b6200188f1760201c565b5050506200048f565b600033905090565b6000600760009054906101000a900473ffffffffffffffffffffffffffffffffffffffff16905081600760006101000a81548173ffffffffffffffffffffffffffffffffffffffff021916908373ffffffffffffffffffffffffffffffffffffffff1602179055508173ffffffffffffffffffffffffffffffffffffffff168173ffffffffffffffffffffffffffffffffffffffff167f8be0079c531659141344cd1fd0a4f28419497f9722a3daafe3b4186f6b6457e060405160405180910390a35050565b6001816000016000828254019250508190555050565b8280546200029290620003f6565b90600052602060002090601f016020900481019282620002b6576000855562000302565b82601f10620002d157805160ff191683800117855562000302565b8280016001018555821562000302579182015b8281111562000301578251825591602001919060010190620002e4565b5b50905062000311919062000315565b5090565b5b808211156200033057600081600090555060010162000316565b5090565b60008151905062000345816200045b565b92915050565b6000815190506200035c8162000475565b92915050565b6000806000606084860312156200037857600080fd5b6000620003888682870162000334565b93505060206200039b8682870162000334565b9250506040620003ae868287016200034b565b9150509250925092565b6000620003c582620003cc565b9050919050565b600073ffffffffffffffffffffffffffffffffffffffff82169050919050565b6000819050919050565b600060028204905060018216806200040f57607f821691505b602082108114156200042657620004256200042c565b5b50919050565b7f4e487b7100000000000000000000000000000000000000000000000000000000600052602260045260246000fd5b6200046681620003b8565b81146200047257600080fd5b50565b6200048081620003ec565b81146200048c57600080fd5b50565b6147e9806200049f6000396000f3fe608060405234801561001057600080fd5b50600436106101735760003560e01c8063715018a6116100de578063c54e44eb11610097578063e7fb74c711610071578063e7fb74c714610450578063e985e9c51461046c578063edf3b1b41461049c578063f2fde38b146104b857610173565b8063c54e44eb146103ce578063c87b56dd146103ec578063e61a70c01461041c57610173565b8063715018a6146103345780638a2e29d41461033e5780638da5cb5b1461035a57806395d89b4114610378578063a22cb46514610396578063b88d4fde146103b257610173565b80630f08efe0116101305780630f08efe01461026057806323b872dd1461027e57806342842e0e1461029a57806361d027b3146102b65780636352211e146102d457806370a082311461030457610173565b80630110a1761461017857806301ffc9a7146101a857806306fdde03146101d8578063081812fc146101f6578063095ea7b3146102265780630c780c8d14610242575b600080fd5b610192600480360381019061018d9190613297565b6104d4565b60405161019f919061392d565b60405180910390f35b6101c260048036038101906101bd9190613245565b6105df565b6040516101cf919061392d565b60405180910390f35b6101e06106c1565b6040516101ed9190613963565b60405180910390f35b610210600480360381019061020b9190613297565b610753565b60405161021d91906137ff565b60405180910390f35b610240600480360381019061023b9190613144565b610799565b005b61024a6108b1565b6040516102579190613c05565b60405180910390f35b6102686108b7565b604051610275919061390b565b60405180910390f35b6102986004803603810190610293919061303e565b610b39565b005b6102b460048036038101906102af919061303e565b610b99565b005b6102be610bb9565b6040516102cb91906137ff565b60405180910390f35b6102ee60048036038101906102e99190613297565b610bdf565b6040516102fb91906137ff565b60405180910390f35b61031e60048036038101906103199190612fd9565b610c91565b60405161032b9190613c05565b60405180910390f35b61033c610d49565b005b61035860048036038101906103539190613180565b610d5d565b005b610362610f62565b60405161036f91906137ff565b60405180910390f35b610380610f8c565b60405161038d9190613963565b60405180910390f35b6103b060048036038101906103ab9190613108565b61101e565b005b6103cc60048036038101906103c7919061308d565b611034565b005b6103d6611096565b6040516103e39190613948565b60405180910390f35b61040660048036038101906104019190613297565b6110bc565b6040516104139190613963565b60405180910390f35b61043660048036038101906104319190613297565b6111cf565b604051610447959493929190613c20565b60405180910390f35b61046a60048036038101906104659190613297565b611252565b005b61048660048036038101906104819190613002565b6116b0565b604051610493919061392d565b60405180910390f35b6104b660048036038101906104b19190613297565b611744565b005b6104d260048036038101906104cd9190612fd9565b61180b565b005b600080600c60008481526020019081526020016000206040518060a0016040529081600082015481526020016001820160009054906101000a900473ffffffffffffffffffffffffffffffffffffffff1673ffffffffffffffffffffffffffffffffffffffff1673ffffffffffffffffffffffffffffffffffffffff1681526020016002820160009054906101000a900473ffffffffffffffffffffffffffffffffffffffff1673ffffffffffffffffffffffffffffffffffffffff1673ffffffffffffffffffffffffffffffffffffffff168152602001600382015481526020016004820160009054906101000a900460ff16151515158152505090508060800151915050919050565b60007f80ac58cd000000000000000000000000000000000000000000000000000000007bffffffffffffffffffffffffffffffffffffffffffffffffffffffff1916827bffffffffffffffffffffffffffffffffffffffffffffffffffffffff191614806106aa57507f5b5e139f000000000000000000000000000000000000000000000000000000007bffffffffffffffffffffffffffffffffffffffffffffffffffffffff1916827bffffffffffffffffffffffffffffffffffffffffffffffffffffffff1916145b806106ba57506106b9826118a5565b5b9050919050565b6060600080546106d090614065565b80601f01602080910402602001604051908101604052809291908181526020018280546106fc90614065565b80156107495780601f1061071e57610100808354040283529160200191610749565b820191906000526020600020905b81548152906001019060200180831161072c57829003601f168201915b5050505050905090565b600061075e8261190f565b6004600083815260200190815260200160002060009054906101000a900473ffffffffffffffffffffffffffffffffffffffff169050919050565b60006107a482610bdf565b90508073ffffffffffffffffffffffffffffffffffffffff168373ffffffffffffffffffffffffffffffffffffffff161415610815576040517f08c379a000000000000000000000000000000000000000000000000000000000815260040161080c90613b45565b60405180910390fd5b8073ffffffffffffffffffffffffffffffffffffffff1661083461195a565b73ffffffffffffffffffffffffffffffffffffffff16148061086357506108628161085d61195a565b6116b0565b5b6108a2576040517f08c379a000000000000000000000000000000000000000000000000000000000815260040161089990613ac5565b60405180910390fd5b6108ac8383611962565b505050565b600a5481565b606060006108c56008611a1b565b905060008167ffffffffffffffff811115610909577f4e487b7100000000000000000000000000000000000000000000000000000000600052604160045260246000fd5b60405190808252806020026020018201604052801561094257816020015b61092f612c7d565b8152602001906001900390816109275790505b50905060005b82811015610b30573073ffffffffffffffffffffffffffffffffffffffff16600c60006001846109789190613e76565b815260200190815260200160002060010160009054906101000a900473ffffffffffffffffffffffffffffffffffffffff1673ffffffffffffffffffffffffffffffffffffffff161415610b1c57600c60006001836109d79190613e76565b81526020019081526020016000206040518060a0016040529081600082015481526020016001820160009054906101000a900473ffffffffffffffffffffffffffffffffffffffff1673ffffffffffffffffffffffffffffffffffffffff1673ffffffffffffffffffffffffffffffffffffffff1681526020016002820160009054906101000a900473ffffffffffffffffffffffffffffffffffffffff1673ffffffffffffffffffffffffffffffffffffffff1673ffffffffffffffffffffffffffffffffffffffff168152602001600382015481526020016004820160009054906101000a900460ff16151515158152505082600183610ad99190613e76565b81518110610b10577f4e487b7100000000000000000000000000000000000000000000000000000000600052603260045260246000fd5b60200260200101819052505b600181610b299190613e76565b9050610948565b50809250505090565b610b4a610b4461195a565b82611a29565b610b89576040517f08c379a0000000000000000000000000000000000000000000000000000000008152600401610b8090613bc5565b60405180910390fd5b610b94838383611abe565b505050565b610bb483838360405180602001604052806000815250611034565b505050565b600b60009054906101000a900473ffffffffffffffffffffffffffffffffffffffff1681565b6000806002600084815260200190815260200160002060009054906101000a900473ffffffffffffffffffffffffffffffffffffffff169050600073ffffffffffffffffffffffffffffffffffffffff168173ffffffffffffffffffffffffffffffffffffffff161415610c88576040517f08c379a0000000000000000000000000000000000000000000000000000000008152600401610c7f90613b25565b60405180910390fd5b80915050919050565b60008073ffffffffffffffffffffffffffffffffffffffff168273ffffffffffffffffffffffffffffffffffffffff161415610d02576040517f08c379a0000000000000000000000000000000000000000000000000000000008152600401610cf990613a85565b60405180910390fd5b600360008373ffffffffffffffffffffffffffffffffffffffff1673ffffffffffffffffffffffffffffffffffffffff168152602001908152602001600020549050919050565b610d51611d25565b610d5b6000611da3565b565b610d65611d25565b60005b84849050811015610f5b576000610d7f6008611a1b565b9050610d8b3382611e69565b610e2281878785818110610dc8577f4e487b7100000000000000000000000000000000000000000000000000000000600052603260045260246000fd5b9050602002810190610dda9190613cea565b8080601f016020809104026020016040519081016040528093929190818152602001838380828437600081840152601f19601f82011690508083019250505050505050611e87565b610ead81858481518110610e5f577f4e487b7100000000000000000000000000000000000000000000000000000000600052603260045260246000fd5b6020026020010151858581518110610ea0577f4e487b7100000000000000000000000000000000000000000000000000000000600052603260045260246000fd5b6020026020010151611efb565b610eb7600861188f565b7f997115af5924f5e38964c6d65c804d4cb85129b65e62eb20a8ca6329dbe57e188130888886818110610f13577f4e487b7100000000000000000000000000000000000000000000000000000000600052603260045260246000fd5b9050602002810190610f259190613cea565b610f2d61195a565b604051610f3e959493929190613c73565b60405180910390a150600181610f549190613e76565b9050610d68565b5050505050565b6000600760009054906101000a900473ffffffffffffffffffffffffffffffffffffffff16905090565b606060018054610f9b90614065565b80601f0160208091040260200160405190810160405280929190818152602001828054610fc790614065565b80156110145780601f10610fe957610100808354040283529160200191611014565b820191906000526020600020905b815481529060010190602001808311610ff757829003601f168201915b5050505050905090565b61103061102961195a565b8383612078565b5050565b61104561103f61195a565b83611a29565b611084576040517f08c379a000000000000000000000000000000000000000000000000000000000815260040161107b90613bc5565b60405180910390fd5b611090848484846121e5565b50505050565b600960009054906101000a900473ffffffffffffffffffffffffffffffffffffffff1681565b60606110c78261190f565b60006006600084815260200190815260200160002080546110e790614065565b80601f016020809104026020016040519081016040528092919081815260200182805461111390614065565b80156111605780601f1061113557610100808354040283529160200191611160565b820191906000526020600020905b81548152906001019060200180831161114357829003601f168201915b505050505090506000611171612241565b90506000815114156111875781925050506111ca565b6000825111156111bc5780826040516020016111a49291906137db565b604051602081830303815290604052925050506111ca565b6111c584612258565b925050505b919050565b600c6020528060005260406000206000915090508060000154908060010160009054906101000a900473ffffffffffffffffffffffffffffffffffffffff16908060020160009054906101000a900473ffffffffffffffffffffffffffffffffffffffff16908060030154908060040160009054906101000a900460ff16905085565b61125b81610bdf565b73ffffffffffffffffffffffffffffffffffffffff163373ffffffffffffffffffffffffffffffffffffffff1614156112c9576040517f08c379a00000000000000000000000000000000000000000000000000000000081526004016112c090613b85565b60405180910390fd5b6000600c6000838152602001908152602001600020600301549050600061130e6064611300600a54856122c090919063ffffffff16565b6122d690919063ffffffff16565b9050600061132582846122ec90919063ffffffff16565b9050611376333085600960009054906101000a900473ffffffffffffffffffffffffffffffffffffffff1673ffffffffffffffffffffffffffffffffffffffff16612302909392919063ffffffff16565b600960009054906101000a900473ffffffffffffffffffffffffffffffffffffffff1673ffffffffffffffffffffffffffffffffffffffff1663095ea7b3600b60009054906101000a900473ffffffffffffffffffffffffffffffffffffffff16836040518363ffffffff1660e01b81526004016113f59291906138e2565b602060405180830381600087803b15801561140f57600080fd5b505af1158015611423573d6000803e3d6000fd5b505050506040513d601f19601f82011682018060405250810190611447919061321c565b50600960009054906101000a900473ffffffffffffffffffffffffffffffffffffffff1673ffffffffffffffffffffffffffffffffffffffff1663095ea7b3600c600087815260200190815260200160002060020160009054906101000a900473ffffffffffffffffffffffffffffffffffffffff16846040518363ffffffff1660e01b81526004016114db9291906138e2565b602060405180830381600087803b1580156114f557600080fd5b505af1158015611509573d6000803e3d6000fd5b505050506040513d601f19601f8201168201806040525081019061152d919061321c565b506115b1600c600086815260200190815260200160002060020160009054906101000a900473ffffffffffffffffffffffffffffffffffffffff1683600960009054906101000a900473ffffffffffffffffffffffffffffffffffffffff1673ffffffffffffffffffffffffffffffffffffffff1661238b9092919063ffffffff16565b611620600b60009054906101000a900473ffffffffffffffffffffffffffffffffffffffff1682600960009054906101000a900473ffffffffffffffffffffffffffffffffffffffff1673ffffffffffffffffffffffffffffffffffffffff1661238b9092919063ffffffff16565b61162b303386611abe565b6001600c600086815260200190815260200160002060040160006101000a81548160ff0219169083151502179055503373ffffffffffffffffffffffffffffffffffffffff167fa574c741071bb18f51fa88c17aeefec514bebf670ca22a3736fba6504ecbb76385856040516116a2929190613cc1565b60405180910390a250505050565b6000600560008473ffffffffffffffffffffffffffffffffffffffff1673ffffffffffffffffffffffffffffffffffffffff16815260200190815260200160002060008373ffffffffffffffffffffffffffffffffffffffff1673ffffffffffffffffffffffffffffffffffffffff16815260200190815260200160002060009054906101000a900460ff16905092915050565b61174c611d25565b6000811415611790576040517f08c379a000000000000000000000000000000000000000000000000000000000815260040161178790613be5565b60405180910390fd5b60648111156117d4576040517f08c379a00000000000000000000000000000000000000000000000000000000081526004016117cb90613a65565b60405180910390fd5b80600a81905550807f244ea8d7627f5a08f4299862bd5a45752842c183aee5b0fb0d1e4887bfa605b360405160405180910390a250565b611813611d25565b600073ffffffffffffffffffffffffffffffffffffffff168173ffffffffffffffffffffffffffffffffffffffff161415611883576040517f08c379a000000000000000000000000000000000000000000000000000000000815260040161187a906139a5565b60405180910390fd5b61188c81611da3565b50565b6001816000016000828254019250508190555050565b60007f01ffc9a7000000000000000000000000000000000000000000000000000000007bffffffffffffffffffffffffffffffffffffffffffffffffffffffff1916827bffffffffffffffffffffffffffffffffffffffffffffffffffffffff1916149050919050565b61191881612411565b611957576040517f08c379a000000000000000000000000000000000000000000000000000000000815260040161194e90613b25565b60405180910390fd5b50565b600033905090565b816004600083815260200190815260200160002060006101000a81548173ffffffffffffffffffffffffffffffffffffffff021916908373ffffffffffffffffffffffffffffffffffffffff160217905550808273ffffffffffffffffffffffffffffffffffffffff166119d583610bdf565b73ffffffffffffffffffffffffffffffffffffffff167f8c5be1e5ebec7d5bd14f71427d1e84f3dd0314c0f7b2291e5b200ac8c7c3b92560405160405180910390a45050565b600081600001549050919050565b600080611a3583610bdf565b90508073ffffffffffffffffffffffffffffffffffffffff168473ffffffffffffffffffffffffffffffffffffffff161480611a775750611a7681856116b0565b5b80611ab557508373ffffffffffffffffffffffffffffffffffffffff16611a9d84610753565b73ffffffffffffffffffffffffffffffffffffffff16145b91505092915050565b8273ffffffffffffffffffffffffffffffffffffffff16611ade82610bdf565b73ffffffffffffffffffffffffffffffffffffffff1614611b34576040517f08c379a0000000000000000000000000000000000000000000000000000000008152600401611b2b906139c5565b60405180910390fd5b600073ffffffffffffffffffffffffffffffffffffffff168273ffffffffffffffffffffffffffffffffffffffff161415611ba4576040517f08c379a0000000000000000000000000000000000000000000000000000000008152600401611b9b90613a05565b60405180910390fd5b611baf83838361247d565b611bba600082611962565b6001600360008573ffffffffffffffffffffffffffffffffffffffff1673ffffffffffffffffffffffffffffffffffffffff1681526020019081526020016000206000828254611c0a9190613f57565b925050819055506001600360008473ffffffffffffffffffffffffffffffffffffffff1673ffffffffffffffffffffffffffffffffffffffff1681526020019081526020016000206000828254611c619190613e76565b92505081905550816002600083815260200190815260200160002060006101000a81548173ffffffffffffffffffffffffffffffffffffffff021916908373ffffffffffffffffffffffffffffffffffffffff160217905550808273ffffffffffffffffffffffffffffffffffffffff168473ffffffffffffffffffffffffffffffffffffffff167fddf252ad1be2c89b69c2b068fc378daa952ba7f163c4a11628f55a4df523b3ef60405160405180910390a4611d20838383612482565b505050565b611d2d61195a565b73ffffffffffffffffffffffffffffffffffffffff16611d4b610f62565b73ffffffffffffffffffffffffffffffffffffffff1614611da1576040517f08c379a0000000000000000000000000000000000000000000000000000000008152600401611d9890613b05565b60405180910390fd5b565b6000600760009054906101000a900473ffffffffffffffffffffffffffffffffffffffff16905081600760006101000a81548173ffffffffffffffffffffffffffffffffffffffff021916908373ffffffffffffffffffffffffffffffffffffffff1602179055508173ffffffffffffffffffffffffffffffffffffffff168173ffffffffffffffffffffffffffffffffffffffff167f8be0079c531659141344cd1fd0a4f28419497f9722a3daafe3b4186f6b6457e060405160405180910390a35050565b611e83828260405180602001604052806000815250612487565b5050565b611e9082612411565b611ecf576040517f08c379a0000000000000000000000000000000000000000000000000000000008152600401611ec690613aa5565b60405180910390fd5b80600660008481526020019081526020016000209080519060200190611ef6929190612cda565b505050565b6040518060a001604052808481526020013073ffffffffffffffffffffffffffffffffffffffff1681526020018273ffffffffffffffffffffffffffffffffffffffff16815260200183815260200160001515815250600c60008581526020019081526020016000206000820151816000015560208201518160010160006101000a81548173ffffffffffffffffffffffffffffffffffffffff021916908373ffffffffffffffffffffffffffffffffffffffff16021790555060408201518160020160006101000a81548173ffffffffffffffffffffffffffffffffffffffff021916908373ffffffffffffffffffffffffffffffffffffffff1602179055506060820151816003015560808201518160040160006101000a81548160ff021916908315150217905550905050612034333085611abe565b827fb640004f1d14576d0c209e240cad0410e0d8c0c33a09375861fbadae2588a98d338385600060405161206b9493929190613851565b60405180910390a2505050565b8173ffffffffffffffffffffffffffffffffffffffff168373ffffffffffffffffffffffffffffffffffffffff1614156120e7576040517f08c379a00000000000000000000000000000000000000000000000000000000081526004016120de90613a25565b60405180910390fd5b80600560008573ffffffffffffffffffffffffffffffffffffffff1673ffffffffffffffffffffffffffffffffffffffff16815260200190815260200160002060008473ffffffffffffffffffffffffffffffffffffffff1673ffffffffffffffffffffffffffffffffffffffff16815260200190815260200160002060006101000a81548160ff0219169083151502179055508173ffffffffffffffffffffffffffffffffffffffff168373ffffffffffffffffffffffffffffffffffffffff167f17307eab39ab6107e8899845ad3d59bd9653f200f220920489ca2b5937696c31836040516121d8919061392d565b60405180910390a3505050565b6121f0848484611abe565b6121fc848484846124e2565b61223b576040517f08c379a000000000000000000000000000000000000000000000000000000000815260040161223290613985565b60405180910390fd5b50505050565b606060405180602001604052806000815250905090565b60606122638261190f565b600061226d612241565b9050600081511161228d57604051806020016040528060008152506122b8565b8061229784612679565b6040516020016122a89291906137db565b6040516020818303038152906040525b915050919050565b600081836122ce9190613efd565b905092915050565b600081836122e49190613ecc565b905092915050565b600081836122fa9190613f57565b905092915050565b612385846323b872dd60e01b8585856040516024016123239392919061381a565b604051602081830303815290604052907bffffffffffffffffffffffffffffffffffffffffffffffffffffffff19166020820180517bffffffffffffffffffffffffffffffffffffffffffffffffffffffff8381831617835250505050612826565b50505050565b61240c8363a9059cbb60e01b84846040516024016123aa9291906138e2565b604051602081830303815290604052907bffffffffffffffffffffffffffffffffffffffffffffffffffffffff19166020820180517bffffffffffffffffffffffffffffffffffffffffffffffffffffffff8381831617835250505050612826565b505050565b60008073ffffffffffffffffffffffffffffffffffffffff166002600084815260200190815260200160002060009054906101000a900473ffffffffffffffffffffffffffffffffffffffff1673ffffffffffffffffffffffffffffffffffffffff1614159050919050565b505050565b505050565b61249183836128ed565b61249e60008484846124e2565b6124dd576040517f08c379a00000000000000000000000000000000000000000000000000000000081526004016124d490613985565b60405180910390fd5b505050565b60006125038473ffffffffffffffffffffffffffffffffffffffff16612ac7565b1561266c578373ffffffffffffffffffffffffffffffffffffffff1663150b7a0261252c61195a565b8786866040518563ffffffff1660e01b815260040161254e9493929190613896565b602060405180830381600087803b15801561256857600080fd5b505af192505050801561259957506040513d601f19601f82011682018060405250810190612596919061326e565b60015b61261c573d80600081146125c9576040519150601f19603f3d011682016040523d82523d6000602084013e6125ce565b606091505b50600081511415612614576040517f08c379a000000000000000000000000000000000000000000000000000000000815260040161260b90613985565b60405180910390fd5b805181602001fd5b63150b7a0260e01b7bffffffffffffffffffffffffffffffffffffffffffffffffffffffff1916817bffffffffffffffffffffffffffffffffffffffffffffffffffffffff191614915050612671565b600190505b949350505050565b606060008214156126c1576040518060400160405280600181526020017f30000000000000000000000000000000000000000000000000000000000000008152509050612821565b600082905060005b600082146126f35780806126dc906140c8565b915050600a826126ec9190613ecc565b91506126c9565b60008167ffffffffffffffff811115612735577f4e487b7100000000000000000000000000000000000000000000000000000000600052604160045260246000fd5b6040519080825280601f01601f1916602001820160405280156127675781602001600182028036833780820191505090505b5090505b6000851461281a576001826127809190613f57565b9150600a8561278f9190614111565b603061279b9190613e76565b60f81b8183815181106127d7577f4e487b7100000000000000000000000000000000000000000000000000000000600052603260045260246000fd5b60200101907effffffffffffffffffffffffffffffffffffffffffffffffffffffffffffff1916908160001a905350600a856128139190613ecc565b945061276b565b8093505050505b919050565b6000612888826040518060400160405280602081526020017f5361666545524332303a206c6f772d6c6576656c2063616c6c206661696c65648152508573ffffffffffffffffffffffffffffffffffffffff16612aea9092919063ffffffff16565b90506000815111156128e857808060200190518101906128a8919061321c565b6128e7576040517f08c379a00000000000000000000000000000000000000000000000000000000081526004016128de90613ba5565b60405180910390fd5b5b505050565b600073ffffffffffffffffffffffffffffffffffffffff168273ffffffffffffffffffffffffffffffffffffffff16141561295d576040517f08c379a000000000000000000000000000000000000000000000000000000000815260040161295490613ae5565b60405180910390fd5b61296681612411565b156129a6576040517f08c379a000000000000000000000000000000000000000000000000000000000815260040161299d906139e5565b60405180910390fd5b6129b26000838361247d565b6001600360008473ffffffffffffffffffffffffffffffffffffffff1673ffffffffffffffffffffffffffffffffffffffff1681526020019081526020016000206000828254612a029190613e76565b92505081905550816002600083815260200190815260200160002060006101000a81548173ffffffffffffffffffffffffffffffffffffffff021916908373ffffffffffffffffffffffffffffffffffffffff160217905550808273ffffffffffffffffffffffffffffffffffffffff16600073ffffffffffffffffffffffffffffffffffffffff167fddf252ad1be2c89b69c2b068fc378daa952ba7f163c4a11628f55a4df523b3ef60405160405180910390a4612ac360008383612482565b5050565b6000808273ffffffffffffffffffffffffffffffffffffffff163b119050919050565b6060612af98484600085612b02565b90509392505050565b606082471015612b47576040517f08c379a0000000000000000000000000000000000000000000000000000000008152600401612b3e90613a45565b60405180910390fd5b612b5085612ac7565b612b8f576040517f08c379a0000000000000000000000000000000000000000000000000000000008152600401612b8690613b65565b60405180910390fd5b6000808673ffffffffffffffffffffffffffffffffffffffff168587604051612bb891906137c4565b60006040518083038185875af1925050503d8060008114612bf5576040519150601f19603f3d011682016040523d82523d6000602084013e612bfa565b606091505b5091509150612c0a828286612c16565b92505050949350505050565b60608315612c2657829050612c76565b600083511115612c395782518084602001fd5b816040517f08c379a0000000000000000000000000000000000000000000000000000000008152600401612c6d9190613963565b60405180910390fd5b9392505050565b6040518060a0016040528060008152602001600073ffffffffffffffffffffffffffffffffffffffff168152602001600073ffffffffffffffffffffffffffffffffffffffff168152602001600081526020016000151581525090565b828054612ce690614065565b90600052602060002090601f016020900481019282612d085760008555612d4f565b82601f10612d2157805160ff1916838001178555612d4f565b82800160010185558215612d4f579182015b82811115612d4e578251825591602001919060010190612d33565b5b509050612d5c9190612d60565b5090565b5b80821115612d79576000816000905550600101612d61565b5090565b6000612d90612d8b84613d66565b613d41565b90508083825260208201905082856020860282011115612daf57600080fd5b60005b85811015612ddf5781612dc58882612e93565b845260208401935060208301925050600181019050612db2565b5050509392505050565b6000612dfc612df784613d92565b613d41565b90508083825260208201905082856020860282011115612e1b57600080fd5b60005b85811015612e4b5781612e318882612fc4565b845260208401935060208301925050600181019050612e1e565b5050509392505050565b6000612e68612e6384613dbe565b613d41565b905082815260208101848484011115612e8057600080fd5b612e8b848285614023565b509392505050565b600081359050612ea281614757565b92915050565b600082601f830112612eb957600080fd5b8135612ec9848260208601612d7d565b91505092915050565b60008083601f840112612ee457600080fd5b8235905067ffffffffffffffff811115612efd57600080fd5b602083019150836020820283011115612f1557600080fd5b9250929050565b600082601f830112612f2d57600080fd5b8135612f3d848260208601612de9565b91505092915050565b600081359050612f558161476e565b92915050565b600081519050612f6a8161476e565b92915050565b600081359050612f7f81614785565b92915050565b600081519050612f9481614785565b92915050565b600082601f830112612fab57600080fd5b8135612fbb848260208601612e55565b91505092915050565b600081359050612fd38161479c565b92915050565b600060208284031215612feb57600080fd5b6000612ff984828501612e93565b91505092915050565b6000806040838503121561301557600080fd5b600061302385828601612e93565b925050602061303485828601612e93565b9150509250929050565b60008060006060848603121561305357600080fd5b600061306186828701612e93565b935050602061307286828701612e93565b925050604061308386828701612fc4565b9150509250925092565b600080600080608085870312156130a357600080fd5b60006130b187828801612e93565b94505060206130c287828801612e93565b93505060406130d387828801612fc4565b925050606085013567ffffffffffffffff8111156130f057600080fd5b6130fc87828801612f9a565b91505092959194509250565b6000806040838503121561311b57600080fd5b600061312985828601612e93565b925050602061313a85828601612f46565b9150509250929050565b6000806040838503121561315757600080fd5b600061316585828601612e93565b925050602061317685828601612fc4565b9150509250929050565b6000806000806060858703121561319657600080fd5b600085013567ffffffffffffffff8111156131b057600080fd5b6131bc87828801612ed2565b9450945050602085013567ffffffffffffffff8111156131db57600080fd5b6131e787828801612f1c565b925050604085013567ffffffffffffffff81111561320457600080fd5b61321087828801612ea8565b91505092959194509250565b60006020828403121561322e57600080fd5b600061323c84828501612f5b565b91505092915050565b60006020828403121561325757600080fd5b600061326584828501612f70565b91505092915050565b60006020828403121561328057600080fd5b600061328e84828501612f85565b91505092915050565b6000602082840312156132a957600080fd5b60006132b784828501612fc4565b91505092915050565b60006132cc838361373e565b60a08301905092915050565b6132e181613f8b565b82525050565b6132f081613f8b565b82525050565b600061330182613dff565b61330b8185613e2d565b935061331683613def565b8060005b8381101561334757815161332e88826132c0565b975061333983613e20565b92505060018101905061331a565b5085935050505092915050565b61335d81613f9d565b82525050565b61336c81613f9d565b82525050565b600061337d82613e0a565b6133878185613e3e565b9350613397818560208601614032565b6133a0816141fe565b840191505092915050565b60006133b682613e0a565b6133c08185613e4f565b93506133d0818560208601614032565b80840191505092915050565b6133e581613fff565b82525050565b60006133f78385613e5a565b9350613404838584614023565b61340d836141fe565b840190509392505050565b600061342382613e15565b61342d8185613e5a565b935061343d818560208601614032565b613446816141fe565b840191505092915050565b600061345c82613e15565b6134668185613e6b565b9350613476818560208601614032565b80840191505092915050565b600061348f603283613e5a565b915061349a8261420f565b604082019050919050565b60006134b2602683613e5a565b91506134bd8261425e565b604082019050919050565b60006134d5602583613e5a565b91506134e0826142ad565b604082019050919050565b60006134f8601c83613e5a565b9150613503826142fc565b602082019050919050565b600061351b602483613e5a565b915061352682614325565b604082019050919050565b600061353e601983613e5a565b915061354982614374565b602082019050919050565b6000613561602683613e5a565b915061356c8261439d565b604082019050919050565b6000613584603383613e5a565b915061358f826143ec565b604082019050919050565b60006135a7602983613e5a565b91506135b28261443b565b604082019050919050565b60006135ca602e83613e5a565b91506135d58261448a565b604082019050919050565b60006135ed603e83613e5a565b91506135f8826144d9565b604082019050919050565b6000613610602083613e5a565b915061361b82614528565b602082019050919050565b6000613633602083613e5a565b915061363e82614551565b602082019050919050565b6000613656601883613e5a565b91506136618261457a565b602082019050919050565b6000613679602183613e5a565b9150613684826145a3565b604082019050919050565b600061369c601d83613e5a565b91506136a7826145f2565b602082019050919050565b60006136bf602e83613e5a565b91506136ca8261461b565b604082019050919050565b60006136e2602a83613e5a565b91506136ed8261466a565b604082019050919050565b6000613705602e83613e5a565b9150613710826146b9565b604082019050919050565b6000613728602383613e5a565b915061373382614708565b604082019050919050565b60a08201600082015161375460008501826137a6565b50602082015161376760208501826132d8565b50604082015161377a60408501826132d8565b50606082015161378d60608501826137a6565b5060808201516137a06080850182613354565b50505050565b6137af81613ff5565b82525050565b6137be81613ff5565b82525050565b60006137d082846133ab565b915081905092915050565b60006137e78285613451565b91506137f38284613451565b91508190509392505050565b600060208201905061381460008301846132e7565b92915050565b600060608201905061382f60008301866132e7565b61383c60208301856132e7565b61384960408301846137b5565b949350505050565b600060808201905061386660008301876132e7565b61387360208301866132e7565b61388060408301856137b5565b61388d6060830184613363565b95945050505050565b60006080820190506138ab60008301876132e7565b6138b860208301866132e7565b6138c560408301856137b5565b81810360608301526138d78184613372565b905095945050505050565b60006040820190506138f760008301856132e7565b61390460208301846137b5565b9392505050565b6000602082019050818103600083015261392581846132f6565b905092915050565b60006020820190506139426000830184613363565b92915050565b600060208201905061395d60008301846133dc565b92915050565b6000602082019050818103600083015261397d8184613418565b905092915050565b6000602082019050818103600083015261399e81613482565b9050919050565b600060208201905081810360008301526139be816134a5565b9050919050565b600060208201905081810360008301526139de816134c8565b9050919050565b600060208201905081810360008301526139fe816134eb565b9050919050565b60006020820190508181036000830152613a1e8161350e565b9050919050565b60006020820190508181036000830152613a3e81613531565b9050919050565b60006020820190508181036000830152613a5e81613554565b9050919050565b60006020820190508181036000830152613a7e81613577565b9050919050565b60006020820190508181036000830152613a9e8161359a565b9050919050565b60006020820190508181036000830152613abe816135bd565b9050919050565b60006020820190508181036000830152613ade816135e0565b9050919050565b60006020820190508181036000830152613afe81613603565b9050919050565b60006020820190508181036000830152613b1e81613626565b9050919050565b60006020820190508181036000830152613b3e81613649565b9050919050565b60006020820190508181036000830152613b5e8161366c565b9050919050565b60006020820190508181036000830152613b7e8161368f565b9050919050565b60006020820190508181036000830152613b9e816136b2565b9050919050565b60006020820190508181036000830152613bbe816136d5565b9050919050565b60006020820190508181036000830152613bde816136f8565b9050919050565b60006020820190508181036000830152613bfe8161371b565b9050919050565b6000602082019050613c1a60008301846137b5565b92915050565b600060a082019050613c3560008301886137b5565b613c4260208301876132e7565b613c4f60408301866132e7565b613c5c60608301856137b5565b613c696080830184613363565b9695505050505050565b6000608082019050613c8860008301886137b5565b613c9560208301876132e7565b8181036040830152613ca88185876133eb565b9050613cb760608301846132e7565b9695505050505050565b6000604082019050613cd660008301856137b5565b613ce360208301846137b5565b9392505050565b60008083356001602003843603038112613d0357600080fd5b80840192508235915067ffffffffffffffff821115613d2157600080fd5b602083019250600182023603831315613d3957600080fd5b509250929050565b6000613d4b613d5c565b9050613d578282614097565b919050565b6000604051905090565b600067ffffffffffffffff821115613d8157613d806141cf565b5b602082029050602081019050919050565b600067ffffffffffffffff821115613dad57613dac6141cf565b5b602082029050602081019050919050565b600067ffffffffffffffff821115613dd957613dd86141cf565b5b613de2826141fe565b9050602081019050919050565b6000819050602082019050919050565b600081519050919050565b600081519050919050565b600081519050919050565b6000602082019050919050565b600082825260208201905092915050565b600082825260208201905092915050565b600081905092915050565b600082825260208201905092915050565b600081905092915050565b6000613e8182613ff5565b9150613e8c83613ff5565b9250827fffffffffffffffffffffffffffffffffffffffffffffffffffffffffffffffff03821115613ec157613ec0614142565b5b828201905092915050565b6000613ed782613ff5565b9150613ee283613ff5565b925082613ef257613ef1614171565b5b828204905092915050565b6000613f0882613ff5565b9150613f1383613ff5565b9250817fffffffffffffffffffffffffffffffffffffffffffffffffffffffffffffffff0483118215151615613f4c57613f4b614142565b5b828202905092915050565b6000613f6282613ff5565b9150613f6d83613ff5565b925082821015613f8057613f7f614142565b5b828203905092915050565b6000613f9682613fd5565b9050919050565b60008115159050919050565b60007fffffffff0000000000000000000000000000000000000000000000000000000082169050919050565b600073ffffffffffffffffffffffffffffffffffffffff82169050919050565b6000819050919050565b600061400a82614011565b9050919050565b600061401c82613fd5565b9050919050565b82818337600083830152505050565b60005b83811015614050578082015181840152602081019050614035565b8381111561405f576000848401525b50505050565b6000600282049050600182168061407d57607f821691505b60208210811415614091576140906141a0565b5b50919050565b6140a0826141fe565b810181811067ffffffffffffffff821117156140bf576140be6141cf565b5b80604052505050565b60006140d382613ff5565b91507fffffffffffffffffffffffffffffffffffffffffffffffffffffffffffffffff82141561410657614105614142565b5b600182019050919050565b600061411c82613ff5565b915061412783613ff5565b92508261413757614136614171565b5b828206905092915050565b7f4e487b7100000000000000000000000000000000000000000000000000000000600052601160045260246000fd5b7f4e487b7100000000000000000000000000000000000000000000000000000000600052601260045260246000fd5b7f4e487b7100000000000000000000000000000000000000000000000000000000600052602260045260246000fd5b7f4e487b7100000000000000000000000000000000000000000000000000000000600052604160045260246000fd5b6000601f19601f8301169050919050565b7f4552433732313a207472616e7366657220746f206e6f6e20455243373231526560008201527f63656976657220696d706c656d656e7465720000000000000000000000000000602082015250565b7f4f776e61626c653a206e6577206f776e657220697320746865207a65726f206160008201527f6464726573730000000000000000000000000000000000000000000000000000602082015250565b7f4552433732313a207472616e736665722066726f6d20696e636f72726563742060008201527f6f776e6572000000000000000000000000000000000000000000000000000000602082015250565b7f4552433732313a20746f6b656e20616c7265616479206d696e74656400000000600082015250565b7f4552433732313a207472616e7366657220746f20746865207a65726f2061646460008201527f7265737300000000000000000000000000000000000000000000000000000000602082015250565b7f4552433732313a20617070726f766520746f2063616c6c657200000000000000600082015250565b7f416464726573733a20696e73756666696369656e742062616c616e636520666f60008201527f722063616c6c0000000000000000000000000000000000000000000000000000602082015250565b7f4372656174684d61726b6574706c6163653a20726f79616c74792061626f766560008201527f20313030206973206e6f7420616c6c6f77656400000000000000000000000000602082015250565b7f4552433732313a2061646472657373207a65726f206973206e6f74206120766160008201527f6c6964206f776e65720000000000000000000000000000000000000000000000602082015250565b7f45524337323155524953746f726167653a2055524920736574206f66206e6f6e60008201527f6578697374656e7420746f6b656e000000000000000000000000000000000000602082015250565b7f4552433732313a20617070726f76652063616c6c6572206973206e6f7420746f60008201527f6b656e206f776e6572206e6f7220617070726f76656420666f7220616c6c0000602082015250565b7f4552433732313a206d696e7420746f20746865207a65726f2061646472657373600082015250565b7f4f776e61626c653a2063616c6c6572206973206e6f7420746865206f776e6572600082015250565b7f4552433732313a20696e76616c696420746f6b656e2049440000000000000000600082015250565b7f4552433732313a20617070726f76616c20746f2063757272656e74206f776e6560008201527f7200000000000000000000000000000000000000000000000000000000000000602082015250565b7f416464726573733a2063616c6c20746f206e6f6e2d636f6e7472616374000000600082015250565b7f437265617468204d61726b6574706c6163653a2063616e6e6f7420627579207960008201527f6f7572206f776e2061737365742e000000000000000000000000000000000000602082015250565b7f5361666545524332303a204552433230206f7065726174696f6e20646964206e60008201527f6f74207375636365656400000000000000000000000000000000000000000000602082015250565b7f4552433732313a2063616c6c6572206973206e6f7420746f6b656e206f776e6560008201527f72206e6f7220617070726f766564000000000000000000000000000000000000602082015250565b7f4372656174684d61726b6574706c6163653a2030206973206e6f7420616c6c6f60008201527f7765640000000000000000000000000000000000000000000000000000000000602082015250565b61476081613f8b565b811461476b57600080fd5b50565b61477781613f9d565b811461478257600080fd5b50565b61478e81613fa9565b811461479957600080fd5b50565b6147a581613ff5565b81146147b057600080fd5b5056fea26469706673582212202416acf4180f8bc30de44e22ae3db4a26af6b68a2ba92d7737c5c26e9c83de3764736f6c63430008040033",
  "linkReferences": {},
  "deployedLinkReferences": {}
}