{
  "_format": "hh-sol-artifact-1",
  "contractName": "TwoBrothersAndOneLumbo",
  "sourceName": "contracts/TwoBrothersAndOneLumbo.sol",
  "abi": [
    {
      "inputs": [
        {
          "internalType": "address",
          "name": "_treasuryAddress",
          "type": "address"
        },
        {
          "internalType": "address",
          "name": "_usdt",
          "type": "address"
        },
        {
          "internalType": "uint256",
          "name": "_royalty",
          "type": "uint256"
        }
      ],
      "stateMutability": "nonpayable",
      "type": "constructor"
    },
    {
      "anonymous": false,
      "inputs": [
        {
          "indexed": true,
          "internalType": "address",
          "name": "owner",
          "type": "address"
        },
        {
          "indexed": true,
          "internalType": "address",
          "name": "approved",
          "type": "address"
        },
        {
          "indexed": true,
          "internalType": "uint256",
          "name": "tokenId",
          "type": "uint256"
        }
      ],
      "name": "Approval",
      "type": "event"
    },
    {
      "anonymous": false,
      "inputs": [
        {
          "indexed": true,
          "internalType": "address",
          "name": "owner",
          "type": "address"
        },
        {
          "indexed": true,
          "internalType": "address",
          "name": "operator",
          "type": "address"
        },
        {
          "indexed": false,
          "internalType": "bool",
          "name": "approved",
          "type": "bool"
        }
      ],
      "name": "ApprovalForAll",
      "type": "event"
    },
    {
      "anonymous": false,
      "inputs": [
        {
          "indexed": false,
          "internalType": "uint256",
          "name": "id",
          "type": "uint256"
        },
        {
          "indexed": true,
          "internalType": "address",
          "name": "buyer",
          "type": "address"
        },
        {
          "indexed": false,
          "internalType": "uint256",
          "name": "price",
          "type": "uint256"
        }
      ],
      "name": "ItemSold",
      "type": "event"
    },
    {
      "anonymous": false,
      "inputs": [
        {
          "indexed": true,
          "internalType": "uint256",
          "name": "tokenId",
          "type": "uint256"
        },
        {
          "indexed": false,
          "internalType": "address",
          "name": "seller",
          "type": "address"
        },
        {
          "indexed": false,
          "internalType": "address",
          "name": "owner",
          "type": "address"
        },
        {
          "indexed": false,
          "internalType": "uint256",
          "name": "price",
          "type": "uint256"
        },
        {
          "indexed": false,
          "internalType": "bool",
          "name": "sold",
          "type": "bool"
        }
      ],
      "name": "MarketItemCreated",
      "type": "event"
    },
    {
      "anonymous": false,
      "inputs": [
        {
          "indexed": false,
          "internalType": "uint256",
          "name": "tokenId",
          "type": "uint256"
        },
        {
          "indexed": false,
          "internalType": "address",
          "name": "beneficiary",
          "type": "address"
        },
        {
          "indexed": false,
          "internalType": "string",
          "name": "tokenUri",
          "type": "string"
        },
        {
          "indexed": false,
          "internalType": "address",
          "name": "minter",
          "type": "address"
        }
      ],
      "name": "Minted",
      "type": "event"
    },
    {
      "anonymous": false,
      "inputs": [
        {
          "indexed": true,
          "internalType": "address",
          "name": "previousOwner",
          "type": "address"
        },
        {
          "indexed": true,
          "internalType": "address",
          "name": "newOwner",
          "type": "address"
        }
      ],
      "name": "OwnershipTransferred",
      "type": "event"
    },
    {
      "anonymous": false,
      "inputs": [
        {
          "indexed": true,
          "internalType": "uint256",
          "name": "updatedRoyalty",
          "type": "uint256"
        }
      ],
      "name": "RoyaltyUpdated",
      "type": "event"
    },
    {
      "anonymous": false,
      "inputs": [
        {
          "indexed": true,
          "internalType": "address",
          "name": "from",
          "type": "address"
        },
        {
          "indexed": true,
          "internalType": "address",
          "name": "to",
          "type": "address"
        },
        {
          "indexed": true,
          "internalType": "uint256",
          "name": "tokenId",
          "type": "uint256"
        }
      ],
      "name": "Transfer",
      "type": "event"
    },
    {
      "inputs": [],
      "name": "USDT",
      "outputs": [
        {
          "internalType": "contract IERC20",
          "name": "",
          "type": "address"
        }
      ],
      "stateMutability": "view",
      "type": "function"
    },
    {
      "inputs": [
        {
          "internalType": "address",
          "name": "to",
          "type": "address"
        },
        {
          "internalType": "uint256",
          "name": "tokenId",
          "type": "uint256"
        }
      ],
      "name": "approve",
      "outputs": [],
      "stateMutability": "nonpayable",
      "type": "function"
    },
    {
      "inputs": [],
      "name": "artistRoyalty",
      "outputs": [
        {
          "internalType": "uint256",
          "name": "",
          "type": "uint256"
        }
      ],
      "stateMutability": "view",
      "type": "function"
    },
    {
      "inputs": [
        {
          "internalType": "address",
          "name": "owner",
          "type": "address"
        }
      ],
      "name": "balanceOf",
      "outputs": [
        {
          "internalType": "uint256",
          "name": "",
          "type": "uint256"
        }
      ],
      "stateMutability": "view",
      "type": "function"
    },
    {
      "inputs": [
        {
          "internalType": "uint256",
          "name": "_tokenId",
          "type": "uint256"
        }
      ],
      "name": "buyItem",
      "outputs": [],
      "stateMutability": "nonpayable",
      "type": "function"
    },
    {
      "inputs": [],
      "name": "fetchMarketItems",
      "outputs": [
        {
          "components": [
            {
              "internalType": "uint256",
              "name": "tokenId",
              "type": "uint256"
            },
            {
              "internalType": "address",
              "name": "seller",
              "type": "address"
            },
            {
              "internalType": "address",
              "name": "owner",
              "type": "address"
            },
            {
              "internalType": "uint256",
              "name": "price",
              "type": "uint256"
            },
            {
              "internalType": "bool",
              "name": "sold",
              "type": "bool"
            }
          ],
          "internalType": "struct TwoBrothersAndOneLumbo.MarketItem[]",
          "name": "",
          "type": "tuple[]"
        }
      ],
      "stateMutability": "view",
      "type": "function"
    },
    {
      "inputs": [
        {
          "internalType": "uint256",
          "name": "tokenId",
          "type": "uint256"
        }
      ],
      "name": "getApproved",
      "outputs": [
        {
          "internalType": "address",
          "name": "",
          "type": "address"
        }
      ],
      "stateMutability": "view",
      "type": "function"
    },
    {
      "inputs": [
        {
          "internalType": "uint256",
          "name": "",
          "type": "uint256"
        }
      ],
      "name": "idToMarketItem",
      "outputs": [
        {
          "internalType": "uint256",
          "name": "tokenId",
          "type": "uint256"
        },
        {
          "internalType": "address",
          "name": "seller",
          "type": "address"
        },
        {
          "internalType": "address",
          "name": "owner",
          "type": "address"
        },
        {
          "internalType": "uint256",
          "name": "price",
          "type": "uint256"
        },
        {
          "internalType": "bool",
          "name": "sold",
          "type": "bool"
        }
      ],
      "stateMutability": "view",
      "type": "function"
    },
    {
      "inputs": [
        {
          "internalType": "address",
          "name": "owner",
          "type": "address"
        },
        {
          "internalType": "address",
          "name": "operator",
          "type": "address"
        }
      ],
      "name": "isApprovedForAll",
      "outputs": [
        {
          "internalType": "bool",
          "name": "",
          "type": "bool"
        }
      ],
      "stateMutability": "view",
      "type": "function"
    },
    {
      "inputs": [
        {
          "internalType": "uint256",
          "name": "id",
          "type": "uint256"
        }
      ],
      "name": "isSold",
      "outputs": [
        {
          "internalType": "bool",
          "name": "",
          "type": "bool"
        }
      ],
      "stateMutability": "view",
      "type": "function"
    },
    {
      "inputs": [
        {
          "internalType": "string[]",
          "name": "_tokenUris",
          "type": "string[]"
        },
        {
          "internalType": "uint256[]",
          "name": "_pricePerItem",
          "type": "uint256[]"
        },
        {
          "internalType": "address[]",
          "name": "_owners",
          "type": "address[]"
        }
      ],
      "name": "mintTokens",
      "outputs": [],
      "stateMutability": "nonpayable",
      "type": "function"
    },
    {
      "inputs": [],
      "name": "name",
      "outputs": [
        {
          "internalType": "string",
          "name": "",
          "type": "string"
        }
      ],
      "stateMutability": "view",
      "type": "function"
    },
    {
      "inputs": [],
      "name": "owner",
      "outputs": [
        {
          "internalType": "address",
          "name": "",
          "type": "address"
        }
      ],
      "stateMutability": "view",
      "type": "function"
    },
    {
      "inputs": [
        {
          "internalType": "uint256",
          "name": "tokenId",
          "type": "uint256"
        }
      ],
      "name": "ownerOf",
      "outputs": [
        {
          "internalType": "address",
          "name": "",
          "type": "address"
        }
      ],
      "stateMutability": "view",
      "type": "function"
    },
    {
      "inputs": [],
      "name": "renounceOwnership",
      "outputs": [],
      "stateMutability": "nonpayable",
      "type": "function"
    },
    {
      "inputs": [
        {
          "internalType": "address",
          "name": "from",
          "type": "address"
        },
        {
          "internalType": "address",
          "name": "to",
          "type": "address"
        },
        {
          "internalType": "uint256",
          "name": "tokenId",
          "type": "uint256"
        }
      ],
      "name": "safeTransferFrom",
      "outputs": [],
      "stateMutability": "nonpayable",
      "type": "function"
    },
    {
      "inputs": [
        {
          "internalType": "address",
          "name": "from",
          "type": "address"
        },
        {
          "internalType": "address",
          "name": "to",
          "type": "address"
        },
        {
          "internalType": "uint256",
          "name": "tokenId",
          "type": "uint256"
        },
        {
          "internalType": "bytes",
          "name": "data",
          "type": "bytes"
        }
      ],
      "name": "safeTransferFrom",
      "outputs": [],
      "stateMutability": "nonpayable",
      "type": "function"
    },
    {
      "inputs": [
        {
          "internalType": "address",
          "name": "operator",
          "type": "address"
        },
        {
          "internalType": "bool",
          "name": "approved",
          "type": "bool"
        }
      ],
      "name": "setApprovalForAll",
      "outputs": [],
      "stateMutability": "nonpayable",
      "type": "function"
    },
    {
      "inputs": [
        {
          "internalType": "bytes4",
          "name": "interfaceId",
          "type": "bytes4"
        }
      ],
      "name": "supportsInterface",
      "outputs": [
        {
          "internalType": "bool",
          "name": "",
          "type": "bool"
        }
      ],
      "stateMutability": "view",
      "type": "function"
    },
    {
      "inputs": [],
      "name": "symbol",
      "outputs": [
        {
          "internalType": "string",
          "name": "",
          "type": "string"
        }
      ],
      "stateMutability": "view",
      "type": "function"
    },
    {
      "inputs": [
        {
          "internalType": "uint256",
          "name": "tokenId",
          "type": "uint256"
        }
      ],
      "name": "tokenURI",
      "outputs": [
        {
          "internalType": "string",
          "name": "",
          "type": "string"
        }
      ],
      "stateMutability": "view",
      "type": "function"
    },
    {
      "inputs": [
        {
          "internalType": "address",
          "name": "from",
          "type": "address"
        },
        {
          "internalType": "address",
          "name": "to",
          "type": "address"
        },
        {
          "internalType": "uint256",
          "name": "tokenId",
          "type": "uint256"
        }
      ],
      "name": "transferFrom",
      "outputs": [],
      "stateMutability": "nonpayable",
      "type": "function"
    },
    {
      "inputs": [
        {
          "internalType": "address",
          "name": "newOwner",
          "type": "address"
        }
      ],
      "name": "transferOwnership",
      "outputs": [],
      "stateMutability": "nonpayable",
      "type": "function"
    },
    {
      "inputs": [],
      "name": "treasury",
      "outputs": [
        {
          "internalType": "address",
          "name": "",
          "type": "address"
        }
      ],
      "stateMutability": "view",
      "type": "function"
    },
    {
      "inputs": [
        {
          "internalType": "uint256",
          "name": "_royalty",
          "type": "uint256"
        }
      ],
      "name": "updateArtistRoyalty",
      "outputs": [],
      "stateMutability": "nonpayable",
      "type": "function"
    },
    {
      "inputs": [
        {
          "internalType": "address",
          "name": "_token",
          "type": "address"
        }
      ],
      "name": "updateToken",
      "outputs": [],
      "stateMutability": "nonpayable",
      "type": "function"
    }
  ],
  "bytecode": "0x60806040523480156200001157600080fd5b5060405162004d9738038062004d97833981810160405281019062000037919062000362565b6040518060400160405280601a81526020017f54776f2042726f746865727320616e64204f6e65204c756d626f0000000000008152506040518060400160405280600581526020017f5442414f4c0000000000000000000000000000000000000000000000000000008152508160009080519060200190620000bb92919062000284565b508060019080519060200190620000d492919062000284565b505050620000f7620000eb620001a060201b60201c565b620001a860201b60201c565b82600b60006101000a81548173ffffffffffffffffffffffffffffffffffffffff021916908373ffffffffffffffffffffffffffffffffffffffff16021790555081600960006101000a81548173ffffffffffffffffffffffffffffffffffffffff021916908373ffffffffffffffffffffffffffffffffffffffff16021790555080600a819055506200019760086200026e60201b6200199e1760201c565b5050506200048f565b600033905090565b6000600760009054906101000a900473ffffffffffffffffffffffffffffffffffffffff16905081600760006101000a81548173ffffffffffffffffffffffffffffffffffffffff021916908373ffffffffffffffffffffffffffffffffffffffff1602179055508173ffffffffffffffffffffffffffffffffffffffff168173ffffffffffffffffffffffffffffffffffffffff167f8be0079c531659141344cd1fd0a4f28419497f9722a3daafe3b4186f6b6457e060405160405180910390a35050565b6001816000016000828254019250508190555050565b8280546200029290620003f6565b90600052602060002090601f016020900481019282620002b6576000855562000302565b82601f10620002d157805160ff191683800117855562000302565b8280016001018555821562000302579182015b8281111562000301578251825591602001919060010190620002e4565b5b50905062000311919062000315565b5090565b5b808211156200033057600081600090555060010162000316565b5090565b60008151905062000345816200045b565b92915050565b6000815190506200035c8162000475565b92915050565b6000806000606084860312156200037857600080fd5b6000620003888682870162000334565b93505060206200039b8682870162000334565b9250506040620003ae868287016200034b565b9150509250925092565b6000620003c582620003cc565b9050919050565b600073ffffffffffffffffffffffffffffffffffffffff82169050919050565b6000819050919050565b600060028204905060018216806200040f57607f821691505b602082108114156200042657620004256200042c565b5b50919050565b7f4e487b7100000000000000000000000000000000000000000000000000000000600052602260045260246000fd5b6200046681620003b8565b81146200047257600080fd5b50565b6200048081620003ec565b81146200048c57600080fd5b50565b6148f8806200049f6000396000f3fe608060405234801561001057600080fd5b506004361061018e5760003560e01c80637ad3def2116100de578063c54e44eb11610097578063e7fb74c711610071578063e7fb74c714610487578063e985e9c5146104a3578063edf3b1b4146104d3578063f2fde38b146104ef5761018e565b8063c54e44eb14610405578063c87b56dd14610423578063e61a70c0146104535761018e565b80637ad3def2146103595780638a2e29d4146103755780638da5cb5b1461039157806395d89b41146103af578063a22cb465146103cd578063b88d4fde146103e95761018e565b80630f08efe01161014b57806361d027b31161012557806361d027b3146102d15780636352211e146102ef57806370a082311461031f578063715018a61461034f5761018e565b80630f08efe01461027b57806323b872dd1461029957806342842e0e146102b55761018e565b80630110a1761461019357806301ffc9a7146101c357806306fdde03146101f3578063081812fc14610211578063095ea7b3146102415780630c780c8d1461025d575b600080fd5b6101ad60048036038101906101a891906133a6565b61050b565b6040516101ba9190613a3c565b60405180910390f35b6101dd60048036038101906101d89190613354565b610616565b6040516101ea9190613a3c565b60405180910390f35b6101fb6106f8565b6040516102089190613a72565b60405180910390f35b61022b600480360381019061022691906133a6565b61078a565b604051610238919061390e565b60405180910390f35b61025b60048036038101906102569190613253565b6107d0565b005b6102656108e8565b6040516102729190613d14565b60405180910390f35b6102836108ee565b6040516102909190613a1a565b60405180910390f35b6102b360048036038101906102ae919061314d565b610b70565b005b6102cf60048036038101906102ca919061314d565b610bd0565b005b6102d9610bf0565b6040516102e6919061390e565b60405180910390f35b610309600480360381019061030491906133a6565b610c16565b604051610316919061390e565b60405180910390f35b610339600480360381019061033491906130e8565b610cc8565b6040516103469190613d14565b60405180910390f35b610357610d80565b005b610373600480360381019061036e91906130e8565b610d94565b005b61038f600480360381019061038a919061328f565b610de0565b005b610399610fe5565b6040516103a6919061390e565b60405180910390f35b6103b761100f565b6040516103c49190613a72565b60405180910390f35b6103e760048036038101906103e29190613217565b6110a1565b005b61040360048036038101906103fe919061319c565b6110b7565b005b61040d611119565b60405161041a9190613a57565b60405180910390f35b61043d600480360381019061043891906133a6565b61113f565b60405161044a9190613a72565b60405180910390f35b61046d600480360381019061046891906133a6565b611252565b60405161047e959493929190613d2f565b60405180910390f35b6104a1600480360381019061049c91906133a6565b6112d5565b005b6104bd60048036038101906104b89190613111565b6117bf565b6040516104ca9190613a3c565b60405180910390f35b6104ed60048036038101906104e891906133a6565b611853565b005b610509600480360381019061050491906130e8565b61191a565b005b600080600c60008481526020019081526020016000206040518060a0016040529081600082015481526020016001820160009054906101000a900473ffffffffffffffffffffffffffffffffffffffff1673ffffffffffffffffffffffffffffffffffffffff1673ffffffffffffffffffffffffffffffffffffffff1681526020016002820160009054906101000a900473ffffffffffffffffffffffffffffffffffffffff1673ffffffffffffffffffffffffffffffffffffffff1673ffffffffffffffffffffffffffffffffffffffff168152602001600382015481526020016004820160009054906101000a900460ff16151515158152505090508060800151915050919050565b60007f80ac58cd000000000000000000000000000000000000000000000000000000007bffffffffffffffffffffffffffffffffffffffffffffffffffffffff1916827bffffffffffffffffffffffffffffffffffffffffffffffffffffffff191614806106e157507f5b5e139f000000000000000000000000000000000000000000000000000000007bffffffffffffffffffffffffffffffffffffffffffffffffffffffff1916827bffffffffffffffffffffffffffffffffffffffffffffffffffffffff1916145b806106f157506106f0826119b4565b5b9050919050565b60606000805461070790614174565b80601f016020809104026020016040519081016040528092919081815260200182805461073390614174565b80156107805780601f1061075557610100808354040283529160200191610780565b820191906000526020600020905b81548152906001019060200180831161076357829003601f168201915b5050505050905090565b600061079582611a1e565b6004600083815260200190815260200160002060009054906101000a900473ffffffffffffffffffffffffffffffffffffffff169050919050565b60006107db82610c16565b90508073ffffffffffffffffffffffffffffffffffffffff168373ffffffffffffffffffffffffffffffffffffffff16141561084c576040517f08c379a000000000000000000000000000000000000000000000000000000000815260040161084390613c54565b60405180910390fd5b8073ffffffffffffffffffffffffffffffffffffffff1661086b611a69565b73ffffffffffffffffffffffffffffffffffffffff16148061089a575061089981610894611a69565b6117bf565b5b6108d9576040517f08c379a00000000000000000000000000000000000000000000000000000000081526004016108d090613bd4565b60405180910390fd5b6108e38383611a71565b505050565b600a5481565b606060006108fc6008611b2a565b905060008167ffffffffffffffff811115610940577f4e487b7100000000000000000000000000000000000000000000000000000000600052604160045260246000fd5b60405190808252806020026020018201604052801561097957816020015b610966612d8c565b81526020019060019003908161095e5790505b50905060005b82811015610b67573073ffffffffffffffffffffffffffffffffffffffff16600c60006001846109af9190613f85565b815260200190815260200160002060010160009054906101000a900473ffffffffffffffffffffffffffffffffffffffff1673ffffffffffffffffffffffffffffffffffffffff161415610b5357600c6000600183610a0e9190613f85565b81526020019081526020016000206040518060a0016040529081600082015481526020016001820160009054906101000a900473ffffffffffffffffffffffffffffffffffffffff1673ffffffffffffffffffffffffffffffffffffffff1673ffffffffffffffffffffffffffffffffffffffff1681526020016002820160009054906101000a900473ffffffffffffffffffffffffffffffffffffffff1673ffffffffffffffffffffffffffffffffffffffff1673ffffffffffffffffffffffffffffffffffffffff168152602001600382015481526020016004820160009054906101000a900460ff16151515158152505082600183610b109190613f85565b81518110610b47577f4e487b7100000000000000000000000000000000000000000000000000000000600052603260045260246000fd5b60200260200101819052505b600181610b609190613f85565b905061097f565b50809250505090565b610b81610b7b611a69565b82611b38565b610bc0576040517f08c379a0000000000000000000000000000000000000000000000000000000008152600401610bb790613cd4565b60405180910390fd5b610bcb838383611bcd565b505050565b610beb838383604051806020016040528060008152506110b7565b505050565b600b60009054906101000a900473ffffffffffffffffffffffffffffffffffffffff1681565b6000806002600084815260200190815260200160002060009054906101000a900473ffffffffffffffffffffffffffffffffffffffff169050600073ffffffffffffffffffffffffffffffffffffffff168173ffffffffffffffffffffffffffffffffffffffff161415610cbf576040517f08c379a0000000000000000000000000000000000000000000000000000000008152600401610cb690613c34565b60405180910390fd5b80915050919050565b60008073ffffffffffffffffffffffffffffffffffffffff168273ffffffffffffffffffffffffffffffffffffffff161415610d39576040517f08c379a0000000000000000000000000000000000000000000000000000000008152600401610d3090613b94565b60405180910390fd5b600360008373ffffffffffffffffffffffffffffffffffffffff1673ffffffffffffffffffffffffffffffffffffffff168152602001908152602001600020549050919050565b610d88611e34565b610d926000611eb2565b565b610d9c611e34565b80600960006101000a81548173ffffffffffffffffffffffffffffffffffffffff021916908373ffffffffffffffffffffffffffffffffffffffff16021790555050565b610de8611e34565b60005b84849050811015610fde576000610e026008611b2a565b9050610e0e3382611f78565b610ea581878785818110610e4b577f4e487b7100000000000000000000000000000000000000000000000000000000600052603260045260246000fd5b9050602002810190610e5d9190613df9565b8080601f016020809104026020016040519081016040528093929190818152602001838380828437600081840152601f19601f82011690508083019250505050505050611f96565b610f3081858481518110610ee2577f4e487b7100000000000000000000000000000000000000000000000000000000600052603260045260246000fd5b6020026020010151858581518110610f23577f4e487b7100000000000000000000000000000000000000000000000000000000600052603260045260246000fd5b602002602001015161200a565b610f3a600861199e565b7f997115af5924f5e38964c6d65c804d4cb85129b65e62eb20a8ca6329dbe57e188130888886818110610f96577f4e487b7100000000000000000000000000000000000000000000000000000000600052603260045260246000fd5b9050602002810190610fa89190613df9565b610fb0611a69565b604051610fc1959493929190613d82565b60405180910390a150600181610fd79190613f85565b9050610deb565b5050505050565b6000600760009054906101000a900473ffffffffffffffffffffffffffffffffffffffff16905090565b60606001805461101e90614174565b80601f016020809104026020016040519081016040528092919081815260200182805461104a90614174565b80156110975780601f1061106c57610100808354040283529160200191611097565b820191906000526020600020905b81548152906001019060200180831161107a57829003601f168201915b5050505050905090565b6110b36110ac611a69565b8383612187565b5050565b6110c86110c2611a69565b83611b38565b611107576040517f08c379a00000000000000000000000000000000000000000000000000000000081526004016110fe90613cd4565b60405180910390fd5b611113848484846122f4565b50505050565b600960009054906101000a900473ffffffffffffffffffffffffffffffffffffffff1681565b606061114a82611a1e565b600060066000848152602001908152602001600020805461116a90614174565b80601f016020809104026020016040519081016040528092919081815260200182805461119690614174565b80156111e35780601f106111b8576101008083540402835291602001916111e3565b820191906000526020600020905b8154815290600101906020018083116111c657829003601f168201915b5050505050905060006111f4612350565b905060008151141561120a57819250505061124d565b60008251111561123f5780826040516020016112279291906138ea565b6040516020818303038152906040529250505061124d565b61124884612367565b925050505b919050565b600c6020528060005260406000206000915090508060000154908060010160009054906101000a900473ffffffffffffffffffffffffffffffffffffffff16908060020160009054906101000a900473ffffffffffffffffffffffffffffffffffffffff16908060030154908060040160009054906101000a900460ff16905085565b6112de81610c16565b73ffffffffffffffffffffffffffffffffffffffff163373ffffffffffffffffffffffffffffffffffffffff16141561134c576040517f08c379a000000000000000000000000000000000000000000000000000000000815260040161134390613c94565b60405180910390fd5b6000600c600083815260200190815260200160002060030154905060006113916064611383600a54856123cf90919063ffffffff16565b6123e590919063ffffffff16565b905060006113a882846123fb90919063ffffffff16565b90506113f9333085600960009054906101000a900473ffffffffffffffffffffffffffffffffffffffff1673ffffffffffffffffffffffffffffffffffffffff16612411909392919063ffffffff16565b600960009054906101000a900473ffffffffffffffffffffffffffffffffffffffff1673ffffffffffffffffffffffffffffffffffffffff1663095ea7b3600b60009054906101000a900473ffffffffffffffffffffffffffffffffffffffff16836040518363ffffffff1660e01b81526004016114789291906139f1565b602060405180830381600087803b15801561149257600080fd5b505af11580156114a6573d6000803e3d6000fd5b505050506040513d601f19601f820116820180604052508101906114ca919061332b565b50600960009054906101000a900473ffffffffffffffffffffffffffffffffffffffff1673ffffffffffffffffffffffffffffffffffffffff1663095ea7b3600c600087815260200190815260200160002060020160009054906101000a900473ffffffffffffffffffffffffffffffffffffffff16846040518363ffffffff1660e01b815260040161155e9291906139f1565b602060405180830381600087803b15801561157857600080fd5b505af115801561158c573d6000803e3d6000fd5b505050506040513d601f19601f820116820180604052508101906115b0919061332b565b50611634600c600086815260200190815260200160002060020160009054906101000a900473ffffffffffffffffffffffffffffffffffffffff1683600960009054906101000a900473ffffffffffffffffffffffffffffffffffffffff1673ffffffffffffffffffffffffffffffffffffffff1661249a9092919063ffffffff16565b6116a3600b60009054906101000a900473ffffffffffffffffffffffffffffffffffffffff1682600960009054906101000a900473ffffffffffffffffffffffffffffffffffffffff1673ffffffffffffffffffffffffffffffffffffffff1661249a9092919063ffffffff16565b6000736615b799a58b850351fd383ef02160bf88f2039c90508073ffffffffffffffffffffffffffffffffffffffff166342842e0e6116e0610fe5565b6116e8611a69565b886040518463ffffffff1660e01b815260040161170793929190613929565b600060405180830381600087803b15801561172157600080fd5b505af1158015611735573d6000803e3d6000fd5b505050506001600c600087815260200190815260200160002060040160006101000a81548160ff0219169083151502179055503373ffffffffffffffffffffffffffffffffffffffff167fa574c741071bb18f51fa88c17aeefec514bebf670ca22a3736fba6504ecbb76386866040516117b0929190613dd0565b60405180910390a25050505050565b6000600560008473ffffffffffffffffffffffffffffffffffffffff1673ffffffffffffffffffffffffffffffffffffffff16815260200190815260200160002060008373ffffffffffffffffffffffffffffffffffffffff1673ffffffffffffffffffffffffffffffffffffffff16815260200190815260200160002060009054906101000a900460ff16905092915050565b61185b611e34565b600081141561189f576040517f08c379a000000000000000000000000000000000000000000000000000000000815260040161189690613cf4565b60405180910390fd5b60648111156118e3576040517f08c379a00000000000000000000000000000000000000000000000000000000081526004016118da90613b74565b60405180910390fd5b80600a81905550807f244ea8d7627f5a08f4299862bd5a45752842c183aee5b0fb0d1e4887bfa605b360405160405180910390a250565b611922611e34565b600073ffffffffffffffffffffffffffffffffffffffff168173ffffffffffffffffffffffffffffffffffffffff161415611992576040517f08c379a000000000000000000000000000000000000000000000000000000000815260040161198990613ab4565b60405180910390fd5b61199b81611eb2565b50565b6001816000016000828254019250508190555050565b60007f01ffc9a7000000000000000000000000000000000000000000000000000000007bffffffffffffffffffffffffffffffffffffffffffffffffffffffff1916827bffffffffffffffffffffffffffffffffffffffffffffffffffffffff1916149050919050565b611a2781612520565b611a66576040517f08c379a0000000000000000000000000000000000000000000000000000000008152600401611a5d90613c34565b60405180910390fd5b50565b600033905090565b816004600083815260200190815260200160002060006101000a81548173ffffffffffffffffffffffffffffffffffffffff021916908373ffffffffffffffffffffffffffffffffffffffff160217905550808273ffffffffffffffffffffffffffffffffffffffff16611ae483610c16565b73ffffffffffffffffffffffffffffffffffffffff167f8c5be1e5ebec7d5bd14f71427d1e84f3dd0314c0f7b2291e5b200ac8c7c3b92560405160405180910390a45050565b600081600001549050919050565b600080611b4483610c16565b90508073ffffffffffffffffffffffffffffffffffffffff168473ffffffffffffffffffffffffffffffffffffffff161480611b865750611b8581856117bf565b5b80611bc457508373ffffffffffffffffffffffffffffffffffffffff16611bac8461078a565b73ffffffffffffffffffffffffffffffffffffffff16145b91505092915050565b8273ffffffffffffffffffffffffffffffffffffffff16611bed82610c16565b73ffffffffffffffffffffffffffffffffffffffff1614611c43576040517f08c379a0000000000000000000000000000000000000000000000000000000008152600401611c3a90613ad4565b60405180910390fd5b600073ffffffffffffffffffffffffffffffffffffffff168273ffffffffffffffffffffffffffffffffffffffff161415611cb3576040517f08c379a0000000000000000000000000000000000000000000000000000000008152600401611caa90613b14565b60405180910390fd5b611cbe83838361258c565b611cc9600082611a71565b6001600360008573ffffffffffffffffffffffffffffffffffffffff1673ffffffffffffffffffffffffffffffffffffffff1681526020019081526020016000206000828254611d199190614066565b925050819055506001600360008473ffffffffffffffffffffffffffffffffffffffff1673ffffffffffffffffffffffffffffffffffffffff1681526020019081526020016000206000828254611d709190613f85565b92505081905550816002600083815260200190815260200160002060006101000a81548173ffffffffffffffffffffffffffffffffffffffff021916908373ffffffffffffffffffffffffffffffffffffffff160217905550808273ffffffffffffffffffffffffffffffffffffffff168473ffffffffffffffffffffffffffffffffffffffff167fddf252ad1be2c89b69c2b068fc378daa952ba7f163c4a11628f55a4df523b3ef60405160405180910390a4611e2f838383612591565b505050565b611e3c611a69565b73ffffffffffffffffffffffffffffffffffffffff16611e5a610fe5565b73ffffffffffffffffffffffffffffffffffffffff1614611eb0576040517f08c379a0000000000000000000000000000000000000000000000000000000008152600401611ea790613c14565b60405180910390fd5b565b6000600760009054906101000a900473ffffffffffffffffffffffffffffffffffffffff16905081600760006101000a81548173ffffffffffffffffffffffffffffffffffffffff021916908373ffffffffffffffffffffffffffffffffffffffff1602179055508173ffffffffffffffffffffffffffffffffffffffff168173ffffffffffffffffffffffffffffffffffffffff167f8be0079c531659141344cd1fd0a4f28419497f9722a3daafe3b4186f6b6457e060405160405180910390a35050565b611f92828260405180602001604052806000815250612596565b5050565b611f9f82612520565b611fde576040517f08c379a0000000000000000000000000000000000000000000000000000000008152600401611fd590613bb4565b60405180910390fd5b80600660008481526020019081526020016000209080519060200190612005929190612de9565b505050565b6040518060a001604052808481526020013073ffffffffffffffffffffffffffffffffffffffff1681526020018273ffffffffffffffffffffffffffffffffffffffff16815260200183815260200160001515815250600c60008581526020019081526020016000206000820151816000015560208201518160010160006101000a81548173ffffffffffffffffffffffffffffffffffffffff021916908373ffffffffffffffffffffffffffffffffffffffff16021790555060408201518160020160006101000a81548173ffffffffffffffffffffffffffffffffffffffff021916908373ffffffffffffffffffffffffffffffffffffffff1602179055506060820151816003015560808201518160040160006101000a81548160ff021916908315150217905550905050612143333085611bcd565b827fb640004f1d14576d0c209e240cad0410e0d8c0c33a09375861fbadae2588a98d338385600060405161217a9493929190613960565b60405180910390a2505050565b8173ffffffffffffffffffffffffffffffffffffffff168373ffffffffffffffffffffffffffffffffffffffff1614156121f6576040517f08c379a00000000000000000000000000000000000000000000000000000000081526004016121ed90613b34565b60405180910390fd5b80600560008573ffffffffffffffffffffffffffffffffffffffff1673ffffffffffffffffffffffffffffffffffffffff16815260200190815260200160002060008473ffffffffffffffffffffffffffffffffffffffff1673ffffffffffffffffffffffffffffffffffffffff16815260200190815260200160002060006101000a81548160ff0219169083151502179055508173ffffffffffffffffffffffffffffffffffffffff168373ffffffffffffffffffffffffffffffffffffffff167f17307eab39ab6107e8899845ad3d59bd9653f200f220920489ca2b5937696c31836040516122e79190613a3c565b60405180910390a3505050565b6122ff848484611bcd565b61230b848484846125f1565b61234a576040517f08c379a000000000000000000000000000000000000000000000000000000000815260040161234190613a94565b60405180910390fd5b50505050565b606060405180602001604052806000815250905090565b606061237282611a1e565b600061237c612350565b9050600081511161239c57604051806020016040528060008152506123c7565b806123a684612788565b6040516020016123b79291906138ea565b6040516020818303038152906040525b915050919050565b600081836123dd919061400c565b905092915050565b600081836123f39190613fdb565b905092915050565b600081836124099190614066565b905092915050565b612494846323b872dd60e01b85858560405160240161243293929190613929565b604051602081830303815290604052907bffffffffffffffffffffffffffffffffffffffffffffffffffffffff19166020820180517bffffffffffffffffffffffffffffffffffffffffffffffffffffffff8381831617835250505050612935565b50505050565b61251b8363a9059cbb60e01b84846040516024016124b99291906139f1565b604051602081830303815290604052907bffffffffffffffffffffffffffffffffffffffffffffffffffffffff19166020820180517bffffffffffffffffffffffffffffffffffffffffffffffffffffffff8381831617835250505050612935565b505050565b60008073ffffffffffffffffffffffffffffffffffffffff166002600084815260200190815260200160002060009054906101000a900473ffffffffffffffffffffffffffffffffffffffff1673ffffffffffffffffffffffffffffffffffffffff1614159050919050565b505050565b505050565b6125a083836129fc565b6125ad60008484846125f1565b6125ec576040517f08c379a00000000000000000000000000000000000000000000000000000000081526004016125e390613a94565b60405180910390fd5b505050565b60006126128473ffffffffffffffffffffffffffffffffffffffff16612bd6565b1561277b578373ffffffffffffffffffffffffffffffffffffffff1663150b7a0261263b611a69565b8786866040518563ffffffff1660e01b815260040161265d94939291906139a5565b602060405180830381600087803b15801561267757600080fd5b505af19250505080156126a857506040513d601f19601f820116820180604052508101906126a5919061337d565b60015b61272b573d80600081146126d8576040519150601f19603f3d011682016040523d82523d6000602084013e6126dd565b606091505b50600081511415612723576040517f08c379a000000000000000000000000000000000000000000000000000000000815260040161271a90613a94565b60405180910390fd5b805181602001fd5b63150b7a0260e01b7bffffffffffffffffffffffffffffffffffffffffffffffffffffffff1916817bffffffffffffffffffffffffffffffffffffffffffffffffffffffff191614915050612780565b600190505b949350505050565b606060008214156127d0576040518060400160405280600181526020017f30000000000000000000000000000000000000000000000000000000000000008152509050612930565b600082905060005b600082146128025780806127eb906141d7565b915050600a826127fb9190613fdb565b91506127d8565b60008167ffffffffffffffff811115612844577f4e487b7100000000000000000000000000000000000000000000000000000000600052604160045260246000fd5b6040519080825280601f01601f1916602001820160405280156128765781602001600182028036833780820191505090505b5090505b600085146129295760018261288f9190614066565b9150600a8561289e9190614220565b60306128aa9190613f85565b60f81b8183815181106128e6577f4e487b7100000000000000000000000000000000000000000000000000000000600052603260045260246000fd5b60200101907effffffffffffffffffffffffffffffffffffffffffffffffffffffffffffff1916908160001a905350600a856129229190613fdb565b945061287a565b8093505050505b919050565b6000612997826040518060400160405280602081526020017f5361666545524332303a206c6f772d6c6576656c2063616c6c206661696c65648152508573ffffffffffffffffffffffffffffffffffffffff16612bf99092919063ffffffff16565b90506000815111156129f757808060200190518101906129b7919061332b565b6129f6576040517f08c379a00000000000000000000000000000000000000000000000000000000081526004016129ed90613cb4565b60405180910390fd5b5b505050565b600073ffffffffffffffffffffffffffffffffffffffff168273ffffffffffffffffffffffffffffffffffffffff161415612a6c576040517f08c379a0000000000000000000000000000000000000000000000000000000008152600401612a6390613bf4565b60405180910390fd5b612a7581612520565b15612ab5576040517f08c379a0000000000000000000000000000000000000000000000000000000008152600401612aac90613af4565b60405180910390fd5b612ac16000838361258c565b6001600360008473ffffffffffffffffffffffffffffffffffffffff1673ffffffffffffffffffffffffffffffffffffffff1681526020019081526020016000206000828254612b119190613f85565b92505081905550816002600083815260200190815260200160002060006101000a81548173ffffffffffffffffffffffffffffffffffffffff021916908373ffffffffffffffffffffffffffffffffffffffff160217905550808273ffffffffffffffffffffffffffffffffffffffff16600073ffffffffffffffffffffffffffffffffffffffff167fddf252ad1be2c89b69c2b068fc378daa952ba7f163c4a11628f55a4df523b3ef60405160405180910390a4612bd260008383612591565b5050565b6000808273ffffffffffffffffffffffffffffffffffffffff163b119050919050565b6060612c088484600085612c11565b90509392505050565b606082471015612c56576040517f08c379a0000000000000000000000000000000000000000000000000000000008152600401612c4d90613b54565b60405180910390fd5b612c5f85612bd6565b612c9e576040517f08c379a0000000000000000000000000000000000000000000000000000000008152600401612c9590613c74565b60405180910390fd5b6000808673ffffffffffffffffffffffffffffffffffffffff168587604051612cc791906138d3565b60006040518083038185875af1925050503d8060008114612d04576040519150601f19603f3d011682016040523d82523d6000602084013e612d09565b606091505b5091509150612d19828286612d25565b92505050949350505050565b60608315612d3557829050612d85565b600083511115612d485782518084602001fd5b816040517f08c379a0000000000000000000000000000000000000000000000000000000008152600401612d7c9190613a72565b60405180910390fd5b9392505050565b6040518060a0016040528060008152602001600073ffffffffffffffffffffffffffffffffffffffff168152602001600073ffffffffffffffffffffffffffffffffffffffff168152602001600081526020016000151581525090565b828054612df590614174565b90600052602060002090601f016020900481019282612e175760008555612e5e565b82601f10612e3057805160ff1916838001178555612e5e565b82800160010185558215612e5e579182015b82811115612e5d578251825591602001919060010190612e42565b5b509050612e6b9190612e6f565b5090565b5b80821115612e88576000816000905550600101612e70565b5090565b6000612e9f612e9a84613e75565b613e50565b90508083825260208201905082856020860282011115612ebe57600080fd5b60005b85811015612eee5781612ed48882612fa2565b845260208401935060208301925050600181019050612ec1565b5050509392505050565b6000612f0b612f0684613ea1565b613e50565b90508083825260208201905082856020860282011115612f2a57600080fd5b60005b85811015612f5a5781612f4088826130d3565b845260208401935060208301925050600181019050612f2d565b5050509392505050565b6000612f77612f7284613ecd565b613e50565b905082815260208101848484011115612f8f57600080fd5b612f9a848285614132565b509392505050565b600081359050612fb181614866565b92915050565b600082601f830112612fc857600080fd5b8135612fd8848260208601612e8c565b91505092915050565b60008083601f840112612ff357600080fd5b8235905067ffffffffffffffff81111561300c57600080fd5b60208301915083602082028301111561302457600080fd5b9250929050565b600082601f83011261303c57600080fd5b813561304c848260208601612ef8565b91505092915050565b6000813590506130648161487d565b92915050565b6000815190506130798161487d565b92915050565b60008135905061308e81614894565b92915050565b6000815190506130a381614894565b92915050565b600082601f8301126130ba57600080fd5b81356130ca848260208601612f64565b91505092915050565b6000813590506130e2816148ab565b92915050565b6000602082840312156130fa57600080fd5b600061310884828501612fa2565b91505092915050565b6000806040838503121561312457600080fd5b600061313285828601612fa2565b925050602061314385828601612fa2565b9150509250929050565b60008060006060848603121561316257600080fd5b600061317086828701612fa2565b935050602061318186828701612fa2565b9250506040613192868287016130d3565b9150509250925092565b600080600080608085870312156131b257600080fd5b60006131c087828801612fa2565b94505060206131d187828801612fa2565b93505060406131e2878288016130d3565b925050606085013567ffffffffffffffff8111156131ff57600080fd5b61320b878288016130a9565b91505092959194509250565b6000806040838503121561322a57600080fd5b600061323885828601612fa2565b925050602061324985828601613055565b9150509250929050565b6000806040838503121561326657600080fd5b600061327485828601612fa2565b9250506020613285858286016130d3565b9150509250929050565b600080600080606085870312156132a557600080fd5b600085013567ffffffffffffffff8111156132bf57600080fd5b6132cb87828801612fe1565b9450945050602085013567ffffffffffffffff8111156132ea57600080fd5b6132f68782880161302b565b925050604085013567ffffffffffffffff81111561331357600080fd5b61331f87828801612fb7565b91505092959194509250565b60006020828403121561333d57600080fd5b600061334b8482850161306a565b91505092915050565b60006020828403121561336657600080fd5b60006133748482850161307f565b91505092915050565b60006020828403121561338f57600080fd5b600061339d84828501613094565b91505092915050565b6000602082840312156133b857600080fd5b60006133c6848285016130d3565b91505092915050565b60006133db838361384d565b60a08301905092915050565b6133f08161409a565b82525050565b6133ff8161409a565b82525050565b600061341082613f0e565b61341a8185613f3c565b935061342583613efe565b8060005b8381101561345657815161343d88826133cf565b975061344883613f2f565b925050600181019050613429565b5085935050505092915050565b61346c816140ac565b82525050565b61347b816140ac565b82525050565b600061348c82613f19565b6134968185613f4d565b93506134a6818560208601614141565b6134af8161430d565b840191505092915050565b60006134c582613f19565b6134cf8185613f5e565b93506134df818560208601614141565b80840191505092915050565b6134f48161410e565b82525050565b60006135068385613f69565b9350613513838584614132565b61351c8361430d565b840190509392505050565b600061353282613f24565b61353c8185613f69565b935061354c818560208601614141565b6135558161430d565b840191505092915050565b600061356b82613f24565b6135758185613f7a565b9350613585818560208601614141565b80840191505092915050565b600061359e603283613f69565b91506135a98261431e565b604082019050919050565b60006135c1602683613f69565b91506135cc8261436d565b604082019050919050565b60006135e4602583613f69565b91506135ef826143bc565b604082019050919050565b6000613607601c83613f69565b91506136128261440b565b602082019050919050565b600061362a602483613f69565b915061363582614434565b604082019050919050565b600061364d601983613f69565b915061365882614483565b602082019050919050565b6000613670602683613f69565b915061367b826144ac565b604082019050919050565b6000613693603383613f69565b915061369e826144fb565b604082019050919050565b60006136b6602983613f69565b91506136c18261454a565b604082019050919050565b60006136d9602e83613f69565b91506136e482614599565b604082019050919050565b60006136fc603e83613f69565b9150613707826145e8565b604082019050919050565b600061371f602083613f69565b915061372a82614637565b602082019050919050565b6000613742602083613f69565b915061374d82614660565b602082019050919050565b6000613765601883613f69565b915061377082614689565b602082019050919050565b6000613788602183613f69565b9150613793826146b2565b604082019050919050565b60006137ab601d83613f69565b91506137b682614701565b602082019050919050565b60006137ce602e83613f69565b91506137d98261472a565b604082019050919050565b60006137f1602a83613f69565b91506137fc82614779565b604082019050919050565b6000613814602e83613f69565b915061381f826147c8565b604082019050919050565b6000613837602383613f69565b915061384282614817565b604082019050919050565b60a08201600082015161386360008501826138b5565b50602082015161387660208501826133e7565b50604082015161388960408501826133e7565b50606082015161389c60608501826138b5565b5060808201516138af6080850182613463565b50505050565b6138be81614104565b82525050565b6138cd81614104565b82525050565b60006138df82846134ba565b915081905092915050565b60006138f68285613560565b91506139028284613560565b91508190509392505050565b600060208201905061392360008301846133f6565b92915050565b600060608201905061393e60008301866133f6565b61394b60208301856133f6565b61395860408301846138c4565b949350505050565b600060808201905061397560008301876133f6565b61398260208301866133f6565b61398f60408301856138c4565b61399c6060830184613472565b95945050505050565b60006080820190506139ba60008301876133f6565b6139c760208301866133f6565b6139d460408301856138c4565b81810360608301526139e68184613481565b905095945050505050565b6000604082019050613a0660008301856133f6565b613a1360208301846138c4565b9392505050565b60006020820190508181036000830152613a348184613405565b905092915050565b6000602082019050613a516000830184613472565b92915050565b6000602082019050613a6c60008301846134eb565b92915050565b60006020820190508181036000830152613a8c8184613527565b905092915050565b60006020820190508181036000830152613aad81613591565b9050919050565b60006020820190508181036000830152613acd816135b4565b9050919050565b60006020820190508181036000830152613aed816135d7565b9050919050565b60006020820190508181036000830152613b0d816135fa565b9050919050565b60006020820190508181036000830152613b2d8161361d565b9050919050565b60006020820190508181036000830152613b4d81613640565b9050919050565b60006020820190508181036000830152613b6d81613663565b9050919050565b60006020820190508181036000830152613b8d81613686565b9050919050565b60006020820190508181036000830152613bad816136a9565b9050919050565b60006020820190508181036000830152613bcd816136cc565b9050919050565b60006020820190508181036000830152613bed816136ef565b9050919050565b60006020820190508181036000830152613c0d81613712565b9050919050565b60006020820190508181036000830152613c2d81613735565b9050919050565b60006020820190508181036000830152613c4d81613758565b9050919050565b60006020820190508181036000830152613c6d8161377b565b9050919050565b60006020820190508181036000830152613c8d8161379e565b9050919050565b60006020820190508181036000830152613cad816137c1565b9050919050565b60006020820190508181036000830152613ccd816137e4565b9050919050565b60006020820190508181036000830152613ced81613807565b9050919050565b60006020820190508181036000830152613d0d8161382a565b9050919050565b6000602082019050613d2960008301846138c4565b92915050565b600060a082019050613d4460008301886138c4565b613d5160208301876133f6565b613d5e60408301866133f6565b613d6b60608301856138c4565b613d786080830184613472565b9695505050505050565b6000608082019050613d9760008301886138c4565b613da460208301876133f6565b8181036040830152613db78185876134fa565b9050613dc660608301846133f6565b9695505050505050565b6000604082019050613de560008301856138c4565b613df260208301846138c4565b9392505050565b60008083356001602003843603038112613e1257600080fd5b80840192508235915067ffffffffffffffff821115613e3057600080fd5b602083019250600182023603831315613e4857600080fd5b509250929050565b6000613e5a613e6b565b9050613e6682826141a6565b919050565b6000604051905090565b600067ffffffffffffffff821115613e9057613e8f6142de565b5b602082029050602081019050919050565b600067ffffffffffffffff821115613ebc57613ebb6142de565b5b602082029050602081019050919050565b600067ffffffffffffffff821115613ee857613ee76142de565b5b613ef18261430d565b9050602081019050919050565b6000819050602082019050919050565b600081519050919050565b600081519050919050565b600081519050919050565b6000602082019050919050565b600082825260208201905092915050565b600082825260208201905092915050565b600081905092915050565b600082825260208201905092915050565b600081905092915050565b6000613f9082614104565b9150613f9b83614104565b9250827fffffffffffffffffffffffffffffffffffffffffffffffffffffffffffffffff03821115613fd057613fcf614251565b5b828201905092915050565b6000613fe682614104565b9150613ff183614104565b92508261400157614000614280565b5b828204905092915050565b600061401782614104565b915061402283614104565b9250817fffffffffffffffffffffffffffffffffffffffffffffffffffffffffffffffff048311821515161561405b5761405a614251565b5b828202905092915050565b600061407182614104565b915061407c83614104565b92508282101561408f5761408e614251565b5b828203905092915050565b60006140a5826140e4565b9050919050565b60008115159050919050565b60007fffffffff0000000000000000000000000000000000000000000000000000000082169050919050565b600073ffffffffffffffffffffffffffffffffffffffff82169050919050565b6000819050919050565b600061411982614120565b9050919050565b600061412b826140e4565b9050919050565b82818337600083830152505050565b60005b8381101561415f578082015181840152602081019050614144565b8381111561416e576000848401525b50505050565b6000600282049050600182168061418c57607f821691505b602082108114156141a05761419f6142af565b5b50919050565b6141af8261430d565b810181811067ffffffffffffffff821117156141ce576141cd6142de565b5b80604052505050565b60006141e282614104565b91507fffffffffffffffffffffffffffffffffffffffffffffffffffffffffffffffff82141561421557614214614251565b5b600182019050919050565b600061422b82614104565b915061423683614104565b92508261424657614245614280565b5b828206905092915050565b7f4e487b7100000000000000000000000000000000000000000000000000000000600052601160045260246000fd5b7f4e487b7100000000000000000000000000000000000000000000000000000000600052601260045260246000fd5b7f4e487b7100000000000000000000000000000000000000000000000000000000600052602260045260246000fd5b7f4e487b7100000000000000000000000000000000000000000000000000000000600052604160045260246000fd5b6000601f19601f8301169050919050565b7f4552433732313a207472616e7366657220746f206e6f6e20455243373231526560008201527f63656976657220696d706c656d656e7465720000000000000000000000000000602082015250565b7f4f776e61626c653a206e6577206f776e657220697320746865207a65726f206160008201527f6464726573730000000000000000000000000000000000000000000000000000602082015250565b7f4552433732313a207472616e736665722066726f6d20696e636f72726563742060008201527f6f776e6572000000000000000000000000000000000000000000000000000000602082015250565b7f4552433732313a20746f6b656e20616c7265616479206d696e74656400000000600082015250565b7f4552433732313a207472616e7366657220746f20746865207a65726f2061646460008201527f7265737300000000000000000000000000000000000000000000000000000000602082015250565b7f4552433732313a20617070726f766520746f2063616c6c657200000000000000600082015250565b7f416464726573733a20696e73756666696369656e742062616c616e636520666f60008201527f722063616c6c0000000000000000000000000000000000000000000000000000602082015250565b7f4372656174684d61726b6574706c6163653a20726f79616c74792061626f766560008201527f20313030206973206e6f7420616c6c6f77656400000000000000000000000000602082015250565b7f4552433732313a2061646472657373207a65726f206973206e6f74206120766160008201527f6c6964206f776e65720000000000000000000000000000000000000000000000602082015250565b7f45524337323155524953746f726167653a2055524920736574206f66206e6f6e60008201527f6578697374656e7420746f6b656e000000000000000000000000000000000000602082015250565b7f4552433732313a20617070726f76652063616c6c6572206973206e6f7420746f60008201527f6b656e206f776e6572206e6f7220617070726f76656420666f7220616c6c0000602082015250565b7f4552433732313a206d696e7420746f20746865207a65726f2061646472657373600082015250565b7f4f776e61626c653a2063616c6c6572206973206e6f7420746865206f776e6572600082015250565b7f4552433732313a20696e76616c696420746f6b656e2049440000000000000000600082015250565b7f4552433732313a20617070726f76616c20746f2063757272656e74206f776e6560008201527f7200000000000000000000000000000000000000000000000000000000000000602082015250565b7f416464726573733a2063616c6c20746f206e6f6e2d636f6e7472616374000000600082015250565b7f437265617468204d61726b6574706c6163653a2063616e6e6f7420627579207960008201527f6f7572206f776e2061737365742e000000000000000000000000000000000000602082015250565b7f5361666545524332303a204552433230206f7065726174696f6e20646964206e60008201527f6f74207375636365656400000000000000000000000000000000000000000000602082015250565b7f4552433732313a2063616c6c6572206973206e6f7420746f6b656e206f776e6560008201527f72206e6f7220617070726f766564000000000000000000000000000000000000602082015250565b7f4372656174684d61726b6574706c6163653a2030206973206e6f7420616c6c6f60008201527f7765640000000000000000000000000000000000000000000000000000000000602082015250565b61486f8161409a565b811461487a57600080fd5b50565b614886816140ac565b811461489157600080fd5b50565b61489d816140b8565b81146148a857600080fd5b50565b6148b481614104565b81146148bf57600080fd5b5056fea2646970667358221220c9d38d73ba5f830a14a1eb350f23940641f0b7272ad0ad91ea296f6df487871264736f6c63430008040033",
  "linkReferences": {},
  "deployedLinkReferences": {}
}