{
    "_format": "hh-sol-artifact-1",
    "contractName": "TwoBrothersAndOneLumbo",
    "sourceName": "contracts/TwoBrothersAndOneLumbo.sol",
    "abi": [
        {
            "inputs": [
                {
                    "internalType": "address",
                    "name": "_treasuryAddress",
                    "type": "address"
                },
                {
                    "internalType": "address",
                    "name": "_usdt",
                    "type": "address"
                },
                {
                    "internalType": "uint256",
                    "name": "_royalty",
                    "type": "uint256"
                }
            ],
            "stateMutability": "nonpayable",
            "type": "constructor"
        },
        {
            "anonymous": false,
            "inputs": [
                {
                    "indexed": true,
                    "internalType": "address",
                    "name": "owner",
                    "type": "address"
                },
                {
                    "indexed": true,
                    "internalType": "address",
                    "name": "approved",
                    "type": "address"
                },
                {
                    "indexed": true,
                    "internalType": "uint256",
                    "name": "tokenId",
                    "type": "uint256"
                }
            ],
            "name": "Approval",
            "type": "event"
        },
        {
            "anonymous": false,
            "inputs": [
                {
                    "indexed": true,
                    "internalType": "address",
                    "name": "owner",
                    "type": "address"
                },
                {
                    "indexed": true,
                    "internalType": "address",
                    "name": "operator",
                    "type": "address"
                },
                {
                    "indexed": false,
                    "internalType": "bool",
                    "name": "approved",
                    "type": "bool"
                }
            ],
            "name": "ApprovalForAll",
            "type": "event"
        },
        {
            "anonymous": false,
            "inputs": [
                {
                    "indexed": false,
                    "internalType": "uint256",
                    "name": "id",
                    "type": "uint256"
                },
                {
                    "indexed": true,
                    "internalType": "address",
                    "name": "buyer",
                    "type": "address"
                },
                {
                    "indexed": false,
                    "internalType": "uint256",
                    "name": "price",
                    "type": "uint256"
                }
            ],
            "name": "ItemSold",
            "type": "event"
        },
        {
            "anonymous": false,
            "inputs": [
                {
                    "indexed": true,
                    "internalType": "uint256",
                    "name": "tokenId",
                    "type": "uint256"
                },
                {
                    "indexed": false,
                    "internalType": "address",
                    "name": "seller",
                    "type": "address"
                },
                {
                    "indexed": false,
                    "internalType": "address",
                    "name": "owner",
                    "type": "address"
                },
                {
                    "indexed": false,
                    "internalType": "uint256",
                    "name": "price",
                    "type": "uint256"
                },
                {
                    "indexed": false,
                    "internalType": "bool",
                    "name": "sold",
                    "type": "bool"
                }
            ],
            "name": "MarketItemCreated",
            "type": "event"
        },
        {
            "anonymous": false,
            "inputs": [
                {
                    "indexed": false,
                    "internalType": "uint256",
                    "name": "tokenId",
                    "type": "uint256"
                },
                {
                    "indexed": false,
                    "internalType": "address",
                    "name": "beneficiary",
                    "type": "address"
                },
                {
                    "indexed": false,
                    "internalType": "string",
                    "name": "tokenUri",
                    "type": "string"
                },
                {
                    "indexed": false,
                    "internalType": "address",
                    "name": "minter",
                    "type": "address"
                }
            ],
            "name": "Minted",
            "type": "event"
        },
        {
            "anonymous": false,
            "inputs": [
                {
                    "indexed": true,
                    "internalType": "address",
                    "name": "previousOwner",
                    "type": "address"
                },
                {
                    "indexed": true,
                    "internalType": "address",
                    "name": "newOwner",
                    "type": "address"
                }
            ],
            "name": "OwnershipTransferred",
            "type": "event"
        },
        {
            "anonymous": false,
            "inputs": [
                {
                    "indexed": true,
                    "internalType": "uint256",
                    "name": "updatedRoyalty",
                    "type": "uint256"
                }
            ],
            "name": "RoyaltyUpdated",
            "type": "event"
        },
        {
            "anonymous": false,
            "inputs": [
                {
                    "indexed": true,
                    "internalType": "address",
                    "name": "from",
                    "type": "address"
                },
                {
                    "indexed": true,
                    "internalType": "address",
                    "name": "to",
                    "type": "address"
                },
                {
                    "indexed": true,
                    "internalType": "uint256",
                    "name": "tokenId",
                    "type": "uint256"
                }
            ],
            "name": "Transfer",
            "type": "event"
        },
        {
            "inputs": [],
            "name": "USDT",
            "outputs": [
                {
                    "internalType": "contract IERC20",
                    "name": "",
                    "type": "address"
                }
            ],
            "stateMutability": "view",
            "type": "function"
        },
        {
            "inputs": [
                {
                    "internalType": "address",
                    "name": "to",
                    "type": "address"
                },
                {
                    "internalType": "uint256",
                    "name": "tokenId",
                    "type": "uint256"
                }
            ],
            "name": "approve",
            "outputs": [],
            "stateMutability": "nonpayable",
            "type": "function"
        },
        {
            "inputs": [],
            "name": "artistRoyalty",
            "outputs": [
                {
                    "internalType": "uint256",
                    "name": "",
                    "type": "uint256"
                }
            ],
            "stateMutability": "view",
            "type": "function"
        },
        {
            "inputs": [
                {
                    "internalType": "address",
                    "name": "owner",
                    "type": "address"
                }
            ],
            "name": "balanceOf",
            "outputs": [
                {
                    "internalType": "uint256",
                    "name": "",
                    "type": "uint256"
                }
            ],
            "stateMutability": "view",
            "type": "function"
        },
        {
            "inputs": [
                {
                    "internalType": "uint256",
                    "name": "_tokenId",
                    "type": "uint256"
                }
            ],
            "name": "buyItem",
            "outputs": [],
            "stateMutability": "nonpayable",
            "type": "function"
        },
        {
            "inputs": [],
            "name": "fetchMarketItems",
            "outputs": [
                {
                    "components": [
                        {
                            "internalType": "uint256",
                            "name": "tokenId",
                            "type": "uint256"
                        },
                        {
                            "internalType": "address",
                            "name": "seller",
                            "type": "address"
                        },
                        {
                            "internalType": "address",
                            "name": "owner",
                            "type": "address"
                        },
                        {
                            "internalType": "uint256",
                            "name": "price",
                            "type": "uint256"
                        },
                        {
                            "internalType": "bool",
                            "name": "sold",
                            "type": "bool"
                        }
                    ],
                    "internalType": "struct TwoBrothersAndOneLumbo.MarketItem[]",
                    "name": "",
                    "type": "tuple[]"
                }
            ],
            "stateMutability": "view",
            "type": "function"
        },
        {
            "inputs": [
                {
                    "internalType": "uint256",
                    "name": "tokenId",
                    "type": "uint256"
                }
            ],
            "name": "getApproved",
            "outputs": [
                {
                    "internalType": "address",
                    "name": "",
                    "type": "address"
                }
            ],
            "stateMutability": "view",
            "type": "function"
        },
        {
            "inputs": [
                {
                    "internalType": "uint256",
                    "name": "",
                    "type": "uint256"
                }
            ],
            "name": "idToMarketItem",
            "outputs": [
                {
                    "internalType": "uint256",
                    "name": "tokenId",
                    "type": "uint256"
                },
                {
                    "internalType": "address",
                    "name": "seller",
                    "type": "address"
                },
                {
                    "internalType": "address",
                    "name": "owner",
                    "type": "address"
                },
                {
                    "internalType": "uint256",
                    "name": "price",
                    "type": "uint256"
                },
                {
                    "internalType": "bool",
                    "name": "sold",
                    "type": "bool"
                }
            ],
            "stateMutability": "view",
            "type": "function"
        },
        {
            "inputs": [
                {
                    "internalType": "address",
                    "name": "owner",
                    "type": "address"
                },
                {
                    "internalType": "address",
                    "name": "operator",
                    "type": "address"
                }
            ],
            "name": "isApprovedForAll",
            "outputs": [
                {
                    "internalType": "bool",
                    "name": "",
                    "type": "bool"
                }
            ],
            "stateMutability": "view",
            "type": "function"
        },
        {
            "inputs": [
                {
                    "internalType": "string[]",
                    "name": "_tokenUris",
                    "type": "string[]"
                },
                {
                    "internalType": "uint256[]",
                    "name": "_pricePerItem",
                    "type": "uint256[]"
                },
                {
                    "internalType": "address[]",
                    "name": "_owners",
                    "type": "address[]"
                }
            ],
            "name": "mintTokens",
            "outputs": [],
            "stateMutability": "nonpayable",
            "type": "function"
        },
        {
            "inputs": [],
            "name": "name",
            "outputs": [
                {
                    "internalType": "string",
                    "name": "",
                    "type": "string"
                }
            ],
            "stateMutability": "view",
            "type": "function"
        },
        {
            "inputs": [],
            "name": "owner",
            "outputs": [
                {
                    "internalType": "address",
                    "name": "",
                    "type": "address"
                }
            ],
            "stateMutability": "view",
            "type": "function"
        },
        {
            "inputs": [
                {
                    "internalType": "uint256",
                    "name": "tokenId",
                    "type": "uint256"
                }
            ],
            "name": "ownerOf",
            "outputs": [
                {
                    "internalType": "address",
                    "name": "",
                    "type": "address"
                }
            ],
            "stateMutability": "view",
            "type": "function"
        },
        {
            "inputs": [],
            "name": "renounceOwnership",
            "outputs": [],
            "stateMutability": "nonpayable",
            "type": "function"
        },
        {
            "inputs": [
                {
                    "internalType": "address",
                    "name": "from",
                    "type": "address"
                },
                {
                    "internalType": "address",
                    "name": "to",
                    "type": "address"
                },
                {
                    "internalType": "uint256",
                    "name": "tokenId",
                    "type": "uint256"
                }
            ],
            "name": "safeTransferFrom",
            "outputs": [],
            "stateMutability": "nonpayable",
            "type": "function"
        },
        {
            "inputs": [
                {
                    "internalType": "address",
                    "name": "from",
                    "type": "address"
                },
                {
                    "internalType": "address",
                    "name": "to",
                    "type": "address"
                },
                {
                    "internalType": "uint256",
                    "name": "tokenId",
                    "type": "uint256"
                },
                {
                    "internalType": "bytes",
                    "name": "data",
                    "type": "bytes"
                }
            ],
            "name": "safeTransferFrom",
            "outputs": [],
            "stateMutability": "nonpayable",
            "type": "function"
        },
        {
            "inputs": [
                {
                    "internalType": "address",
                    "name": "operator",
                    "type": "address"
                },
                {
                    "internalType": "bool",
                    "name": "approved",
                    "type": "bool"
                }
            ],
            "name": "setApprovalForAll",
            "outputs": [],
            "stateMutability": "nonpayable",
            "type": "function"
        },
        {
            "inputs": [
                {
                    "internalType": "bytes4",
                    "name": "interfaceId",
                    "type": "bytes4"
                }
            ],
            "name": "supportsInterface",
            "outputs": [
                {
                    "internalType": "bool",
                    "name": "",
                    "type": "bool"
                }
            ],
            "stateMutability": "view",
            "type": "function"
        },
        {
            "inputs": [],
            "name": "symbol",
            "outputs": [
                {
                    "internalType": "string",
                    "name": "",
                    "type": "string"
                }
            ],
            "stateMutability": "view",
            "type": "function"
        },
        {
            "inputs": [
                {
                    "internalType": "uint256",
                    "name": "tokenId",
                    "type": "uint256"
                }
            ],
            "name": "tokenURI",
            "outputs": [
                {
                    "internalType": "string",
                    "name": "",
                    "type": "string"
                }
            ],
            "stateMutability": "view",
            "type": "function"
        },
        {
            "inputs": [
                {
                    "internalType": "address",
                    "name": "from",
                    "type": "address"
                },
                {
                    "internalType": "address",
                    "name": "to",
                    "type": "address"
                },
                {
                    "internalType": "uint256",
                    "name": "tokenId",
                    "type": "uint256"
                }
            ],
            "name": "transferFrom",
            "outputs": [],
            "stateMutability": "nonpayable",
            "type": "function"
        },
        {
            "inputs": [
                {
                    "internalType": "address",
                    "name": "newOwner",
                    "type": "address"
                }
            ],
            "name": "transferOwnership",
            "outputs": [],
            "stateMutability": "nonpayable",
            "type": "function"
        },
        {
            "inputs": [],
            "name": "treasury",
            "outputs": [
                {
                    "internalType": "address",
                    "name": "",
                    "type": "address"
                }
            ],
            "stateMutability": "view",
            "type": "function"
        },
        {
            "inputs": [
                {
                    "internalType": "uint256",
                    "name": "_royalty",
                    "type": "uint256"
                }
            ],
            "name": "updateArtistRoyalty",
            "outputs": [],
            "stateMutability": "nonpayable",
            "type": "function"
        }
    ],
    "bytecode": "0x60806040523480156200001157600080fd5b5060405162004b3238038062004b32833981810160405281019062000037919062000362565b6040518060400160405280601a81526020017f54776f2042726f746865727320616e64204f6e65204c756d626f0000000000008152506040518060400160405280600581526020017f5442414f4c0000000000000000000000000000000000000000000000000000008152508160009080519060200190620000bb92919062000284565b508060019080519060200190620000d492919062000284565b505050620000f7620000eb620001a060201b60201c565b620001a860201b60201c565b82600b60006101000a81548173ffffffffffffffffffffffffffffffffffffffff021916908373ffffffffffffffffffffffffffffffffffffffff16021790555081600960006101000a81548173ffffffffffffffffffffffffffffffffffffffff021916908373ffffffffffffffffffffffffffffffffffffffff16021790555080600a819055506200019760086200026e60201b620017391760201c565b5050506200048f565b600033905090565b6000600760009054906101000a900473ffffffffffffffffffffffffffffffffffffffff16905081600760006101000a81548173ffffffffffffffffffffffffffffffffffffffff021916908373ffffffffffffffffffffffffffffffffffffffff1602179055508173ffffffffffffffffffffffffffffffffffffffff168173ffffffffffffffffffffffffffffffffffffffff167f8be0079c531659141344cd1fd0a4f28419497f9722a3daafe3b4186f6b6457e060405160405180910390a35050565b6001816000016000828254019250508190555050565b8280546200029290620003f6565b90600052602060002090601f016020900481019282620002b6576000855562000302565b82601f10620002d157805160ff191683800117855562000302565b8280016001018555821562000302579182015b8281111562000301578251825591602001919060010190620002e4565b5b50905062000311919062000315565b5090565b5b808211156200033057600081600090555060010162000316565b5090565b60008151905062000345816200045b565b92915050565b6000815190506200035c8162000475565b92915050565b6000806000606084860312156200037857600080fd5b6000620003888682870162000334565b93505060206200039b8682870162000334565b9250506040620003ae868287016200034b565b9150509250925092565b6000620003c582620003cc565b9050919050565b600073ffffffffffffffffffffffffffffffffffffffff82169050919050565b6000819050919050565b600060028204905060018216806200040f57607f821691505b602082108114156200042657620004256200042c565b5b50919050565b7f4e487b7100000000000000000000000000000000000000000000000000000000600052602260045260246000fd5b6200046681620003b8565b81146200047257600080fd5b50565b6200048081620003ec565b81146200048c57600080fd5b50565b614693806200049f6000396000f3fe608060405234801561001057600080fd5b50600436106101585760003560e01c80638a2e29d4116100c3578063c87b56dd1161007c578063c87b56dd146103a1578063e61a70c0146103d1578063e7fb74c714610405578063e985e9c514610421578063edf3b1b414610451578063f2fde38b1461046d57610158565b80638a2e29d4146102f35780638da5cb5b1461030f57806395d89b411461032d578063a22cb4651461034b578063b88d4fde14610367578063c54e44eb1461038357610158565b806323b872dd1161011557806323b872dd1461023357806342842e0e1461024f57806361d027b31461026b5780636352211e1461028957806370a08231146102b9578063715018a6146102e957610158565b806301ffc9a71461015d57806306fdde031461018d578063081812fc146101ab578063095ea7b3146101db5780630c780c8d146101f75780630f08efe014610215575b600080fd5b610177600480360381019061017291906130ef565b610489565b60405161018491906137d7565b60405180910390f35b61019561056b565b6040516101a2919061380d565b60405180910390f35b6101c560048036038101906101c09190613141565b6105fd565b6040516101d291906136a9565b60405180910390f35b6101f560048036038101906101f09190612fee565b610643565b005b6101ff61075b565b60405161020c9190613aaf565b60405180910390f35b61021d610761565b60405161022a91906137b5565b60405180910390f35b61024d60048036038101906102489190612ee8565b6109e3565b005b61026960048036038101906102649190612ee8565b610a43565b005b610273610a63565b60405161028091906136a9565b60405180910390f35b6102a3600480360381019061029e9190613141565b610a89565b6040516102b091906136a9565b60405180910390f35b6102d360048036038101906102ce9190612e83565b610b3b565b6040516102e09190613aaf565b60405180910390f35b6102f1610bf3565b005b61030d6004803603810190610308919061302a565b610c07565b005b610317610e0c565b60405161032491906136a9565b60405180910390f35b610335610e36565b604051610342919061380d565b60405180910390f35b61036560048036038101906103609190612fb2565b610ec8565b005b610381600480360381019061037c9190612f37565b610ede565b005b61038b610f40565b60405161039891906137f2565b60405180910390f35b6103bb60048036038101906103b69190613141565b610f66565b6040516103c8919061380d565b60405180910390f35b6103eb60048036038101906103e69190613141565b611079565b6040516103fc959493929190613aca565b60405180910390f35b61041f600480360381019061041a9190613141565b6110fc565b005b61043b60048036038101906104369190612eac565b61155a565b60405161044891906137d7565b60405180910390f35b61046b60048036038101906104669190613141565b6115ee565b005b61048760048036038101906104829190612e83565b6116b5565b005b60007f80ac58cd000000000000000000000000000000000000000000000000000000007bffffffffffffffffffffffffffffffffffffffffffffffffffffffff1916827bffffffffffffffffffffffffffffffffffffffffffffffffffffffff1916148061055457507f5b5e139f000000000000000000000000000000000000000000000000000000007bffffffffffffffffffffffffffffffffffffffffffffffffffffffff1916827bffffffffffffffffffffffffffffffffffffffffffffffffffffffff1916145b8061056457506105638261174f565b5b9050919050565b60606000805461057a90613f0f565b80601f01602080910402602001604051908101604052809291908181526020018280546105a690613f0f565b80156105f35780601f106105c8576101008083540402835291602001916105f3565b820191906000526020600020905b8154815290600101906020018083116105d657829003601f168201915b5050505050905090565b6000610608826117b9565b6004600083815260200190815260200160002060009054906101000a900473ffffffffffffffffffffffffffffffffffffffff169050919050565b600061064e82610a89565b90508073ffffffffffffffffffffffffffffffffffffffff168373ffffffffffffffffffffffffffffffffffffffff1614156106bf576040517f08c379a00000000000000000000000000000000000000000000000000000000081526004016106b6906139ef565b60405180910390fd5b8073ffffffffffffffffffffffffffffffffffffffff166106de611804565b73ffffffffffffffffffffffffffffffffffffffff16148061070d575061070c81610707611804565b61155a565b5b61074c576040517f08c379a00000000000000000000000000000000000000000000000000000000081526004016107439061396f565b60405180910390fd5b610756838361180c565b505050565b600a5481565b6060600061076f60086118c5565b905060008167ffffffffffffffff8111156107b3577f4e487b7100000000000000000000000000000000000000000000000000000000600052604160045260246000fd5b6040519080825280602002602001820160405280156107ec57816020015b6107d9612b27565b8152602001906001900390816107d15790505b50905060005b828110156109da573073ffffffffffffffffffffffffffffffffffffffff16600c60006001846108229190613d20565b815260200190815260200160002060010160009054906101000a900473ffffffffffffffffffffffffffffffffffffffff1673ffffffffffffffffffffffffffffffffffffffff1614156109c657600c60006001836108819190613d20565b81526020019081526020016000206040518060a0016040529081600082015481526020016001820160009054906101000a900473ffffffffffffffffffffffffffffffffffffffff1673ffffffffffffffffffffffffffffffffffffffff1673ffffffffffffffffffffffffffffffffffffffff1681526020016002820160009054906101000a900473ffffffffffffffffffffffffffffffffffffffff1673ffffffffffffffffffffffffffffffffffffffff1673ffffffffffffffffffffffffffffffffffffffff168152602001600382015481526020016004820160009054906101000a900460ff161515151581525050826001836109839190613d20565b815181106109ba577f4e487b7100000000000000000000000000000000000000000000000000000000600052603260045260246000fd5b60200260200101819052505b6001816109d39190613d20565b90506107f2565b50809250505090565b6109f46109ee611804565b826118d3565b610a33576040517f08c379a0000000000000000000000000000000000000000000000000000000008152600401610a2a90613a6f565b60405180910390fd5b610a3e838383611968565b505050565b610a5e83838360405180602001604052806000815250610ede565b505050565b600b60009054906101000a900473ffffffffffffffffffffffffffffffffffffffff1681565b6000806002600084815260200190815260200160002060009054906101000a900473ffffffffffffffffffffffffffffffffffffffff169050600073ffffffffffffffffffffffffffffffffffffffff168173ffffffffffffffffffffffffffffffffffffffff161415610b32576040517f08c379a0000000000000000000000000000000000000000000000000000000008152600401610b29906139cf565b60405180910390fd5b80915050919050565b60008073ffffffffffffffffffffffffffffffffffffffff168273ffffffffffffffffffffffffffffffffffffffff161415610bac576040517f08c379a0000000000000000000000000000000000000000000000000000000008152600401610ba39061392f565b60405180910390fd5b600360008373ffffffffffffffffffffffffffffffffffffffff1673ffffffffffffffffffffffffffffffffffffffff168152602001908152602001600020549050919050565b610bfb611bcf565b610c056000611c4d565b565b610c0f611bcf565b60005b84849050811015610e05576000610c2960086118c5565b9050610c353382611d13565b610ccc81878785818110610c72577f4e487b7100000000000000000000000000000000000000000000000000000000600052603260045260246000fd5b9050602002810190610c849190613b94565b8080601f016020809104026020016040519081016040528093929190818152602001838380828437600081840152601f19601f82011690508083019250505050505050611d31565b610d5781858481518110610d09577f4e487b7100000000000000000000000000000000000000000000000000000000600052603260045260246000fd5b6020026020010151858581518110610d4a577f4e487b7100000000000000000000000000000000000000000000000000000000600052603260045260246000fd5b6020026020010151611da5565b610d616008611739565b7f997115af5924f5e38964c6d65c804d4cb85129b65e62eb20a8ca6329dbe57e188130888886818110610dbd577f4e487b7100000000000000000000000000000000000000000000000000000000600052603260045260246000fd5b9050602002810190610dcf9190613b94565b610dd7611804565b604051610de8959493929190613b1d565b60405180910390a150600181610dfe9190613d20565b9050610c12565b5050505050565b6000600760009054906101000a900473ffffffffffffffffffffffffffffffffffffffff16905090565b606060018054610e4590613f0f565b80601f0160208091040260200160405190810160405280929190818152602001828054610e7190613f0f565b8015610ebe5780601f10610e9357610100808354040283529160200191610ebe565b820191906000526020600020905b815481529060010190602001808311610ea157829003601f168201915b5050505050905090565b610eda610ed3611804565b8383611f22565b5050565b610eef610ee9611804565b836118d3565b610f2e576040517f08c379a0000000000000000000000000000000000000000000000000000000008152600401610f2590613a6f565b60405180910390fd5b610f3a8484848461208f565b50505050565b600960009054906101000a900473ffffffffffffffffffffffffffffffffffffffff1681565b6060610f71826117b9565b6000600660008481526020019081526020016000208054610f9190613f0f565b80601f0160208091040260200160405190810160405280929190818152602001828054610fbd90613f0f565b801561100a5780601f10610fdf5761010080835404028352916020019161100a565b820191906000526020600020905b815481529060010190602001808311610fed57829003601f168201915b50505050509050600061101b6120eb565b9050600081511415611031578192505050611074565b60008251111561106657808260405160200161104e929190613685565b60405160208183030381529060405292505050611074565b61106f84612102565b925050505b919050565b600c6020528060005260406000206000915090508060000154908060010160009054906101000a900473ffffffffffffffffffffffffffffffffffffffff16908060020160009054906101000a900473ffffffffffffffffffffffffffffffffffffffff16908060030154908060040160009054906101000a900460ff16905085565b61110581610a89565b73ffffffffffffffffffffffffffffffffffffffff163373ffffffffffffffffffffffffffffffffffffffff161415611173576040517f08c379a000000000000000000000000000000000000000000000000000000000815260040161116a90613a2f565b60405180910390fd5b6000600c600083815260200190815260200160002060030154905060006111b860646111aa600a548561216a90919063ffffffff16565b61218090919063ffffffff16565b905060006111cf828461219690919063ffffffff16565b9050611220333085600960009054906101000a900473ffffffffffffffffffffffffffffffffffffffff1673ffffffffffffffffffffffffffffffffffffffff166121ac909392919063ffffffff16565b600960009054906101000a900473ffffffffffffffffffffffffffffffffffffffff1673ffffffffffffffffffffffffffffffffffffffff1663095ea7b3600b60009054906101000a900473ffffffffffffffffffffffffffffffffffffffff16836040518363ffffffff1660e01b815260040161129f92919061378c565b602060405180830381600087803b1580156112b957600080fd5b505af11580156112cd573d6000803e3d6000fd5b505050506040513d601f19601f820116820180604052508101906112f191906130c6565b50600960009054906101000a900473ffffffffffffffffffffffffffffffffffffffff1673ffffffffffffffffffffffffffffffffffffffff1663095ea7b3600c600087815260200190815260200160002060020160009054906101000a900473ffffffffffffffffffffffffffffffffffffffff16846040518363ffffffff1660e01b815260040161138592919061378c565b602060405180830381600087803b15801561139f57600080fd5b505af11580156113b3573d6000803e3d6000fd5b505050506040513d601f19601f820116820180604052508101906113d791906130c6565b5061145b600c600086815260200190815260200160002060020160009054906101000a900473ffffffffffffffffffffffffffffffffffffffff1683600960009054906101000a900473ffffffffffffffffffffffffffffffffffffffff1673ffffffffffffffffffffffffffffffffffffffff166122359092919063ffffffff16565b6114ca600b60009054906101000a900473ffffffffffffffffffffffffffffffffffffffff1682600960009054906101000a900473ffffffffffffffffffffffffffffffffffffffff1673ffffffffffffffffffffffffffffffffffffffff166122359092919063ffffffff16565b6114d5303386611968565b6001600c600086815260200190815260200160002060040160006101000a81548160ff0219169083151502179055503373ffffffffffffffffffffffffffffffffffffffff167fa574c741071bb18f51fa88c17aeefec514bebf670ca22a3736fba6504ecbb763858560405161154c929190613b6b565b60405180910390a250505050565b6000600560008473ffffffffffffffffffffffffffffffffffffffff1673ffffffffffffffffffffffffffffffffffffffff16815260200190815260200160002060008373ffffffffffffffffffffffffffffffffffffffff1673ffffffffffffffffffffffffffffffffffffffff16815260200190815260200160002060009054906101000a900460ff16905092915050565b6115f6611bcf565b600081141561163a576040517f08c379a000000000000000000000000000000000000000000000000000000000815260040161163190613a8f565b60405180910390fd5b606481111561167e576040517f08c379a00000000000000000000000000000000000000000000000000000000081526004016116759061390f565b60405180910390fd5b80600a81905550807f244ea8d7627f5a08f4299862bd5a45752842c183aee5b0fb0d1e4887bfa605b360405160405180910390a250565b6116bd611bcf565b600073ffffffffffffffffffffffffffffffffffffffff168173ffffffffffffffffffffffffffffffffffffffff16141561172d576040517f08c379a00000000000000000000000000000000000000000000000000000000081526004016117249061384f565b60405180910390fd5b61173681611c4d565b50565b6001816000016000828254019250508190555050565b60007f01ffc9a7000000000000000000000000000000000000000000000000000000007bffffffffffffffffffffffffffffffffffffffffffffffffffffffff1916827bffffffffffffffffffffffffffffffffffffffffffffffffffffffff1916149050919050565b6117c2816122bb565b611801576040517f08c379a00000000000000000000000000000000000000000000000000000000081526004016117f8906139cf565b60405180910390fd5b50565b600033905090565b816004600083815260200190815260200160002060006101000a81548173ffffffffffffffffffffffffffffffffffffffff021916908373ffffffffffffffffffffffffffffffffffffffff160217905550808273ffffffffffffffffffffffffffffffffffffffff1661187f83610a89565b73ffffffffffffffffffffffffffffffffffffffff167f8c5be1e5ebec7d5bd14f71427d1e84f3dd0314c0f7b2291e5b200ac8c7c3b92560405160405180910390a45050565b600081600001549050919050565b6000806118df83610a89565b90508073ffffffffffffffffffffffffffffffffffffffff168473ffffffffffffffffffffffffffffffffffffffff1614806119215750611920818561155a565b5b8061195f57508373ffffffffffffffffffffffffffffffffffffffff16611947846105fd565b73ffffffffffffffffffffffffffffffffffffffff16145b91505092915050565b8273ffffffffffffffffffffffffffffffffffffffff1661198882610a89565b73ffffffffffffffffffffffffffffffffffffffff16146119de576040517f08c379a00000000000000000000000000000000000000000000000000000000081526004016119d59061386f565b60405180910390fd5b600073ffffffffffffffffffffffffffffffffffffffff168273ffffffffffffffffffffffffffffffffffffffff161415611a4e576040517f08c379a0000000000000000000000000000000000000000000000000000000008152600401611a45906138af565b60405180910390fd5b611a59838383612327565b611a6460008261180c565b6001600360008573ffffffffffffffffffffffffffffffffffffffff1673ffffffffffffffffffffffffffffffffffffffff1681526020019081526020016000206000828254611ab49190613e01565b925050819055506001600360008473ffffffffffffffffffffffffffffffffffffffff1673ffffffffffffffffffffffffffffffffffffffff1681526020019081526020016000206000828254611b0b9190613d20565b92505081905550816002600083815260200190815260200160002060006101000a81548173ffffffffffffffffffffffffffffffffffffffff021916908373ffffffffffffffffffffffffffffffffffffffff160217905550808273ffffffffffffffffffffffffffffffffffffffff168473ffffffffffffffffffffffffffffffffffffffff167fddf252ad1be2c89b69c2b068fc378daa952ba7f163c4a11628f55a4df523b3ef60405160405180910390a4611bca83838361232c565b505050565b611bd7611804565b73ffffffffffffffffffffffffffffffffffffffff16611bf5610e0c565b73ffffffffffffffffffffffffffffffffffffffff1614611c4b576040517f08c379a0000000000000000000000000000000000000000000000000000000008152600401611c42906139af565b60405180910390fd5b565b6000600760009054906101000a900473ffffffffffffffffffffffffffffffffffffffff16905081600760006101000a81548173ffffffffffffffffffffffffffffffffffffffff021916908373ffffffffffffffffffffffffffffffffffffffff1602179055508173ffffffffffffffffffffffffffffffffffffffff168173ffffffffffffffffffffffffffffffffffffffff167f8be0079c531659141344cd1fd0a4f28419497f9722a3daafe3b4186f6b6457e060405160405180910390a35050565b611d2d828260405180602001604052806000815250612331565b5050565b611d3a826122bb565b611d79576040517f08c379a0000000000000000000000000000000000000000000000000000000008152600401611d709061394f565b60405180910390fd5b80600660008481526020019081526020016000209080519060200190611da0929190612b84565b505050565b6040518060a001604052808481526020013073ffffffffffffffffffffffffffffffffffffffff1681526020018273ffffffffffffffffffffffffffffffffffffffff16815260200183815260200160001515815250600c60008581526020019081526020016000206000820151816000015560208201518160010160006101000a81548173ffffffffffffffffffffffffffffffffffffffff021916908373ffffffffffffffffffffffffffffffffffffffff16021790555060408201518160020160006101000a81548173ffffffffffffffffffffffffffffffffffffffff021916908373ffffffffffffffffffffffffffffffffffffffff1602179055506060820151816003015560808201518160040160006101000a81548160ff021916908315150217905550905050611ede333085611968565b827fb640004f1d14576d0c209e240cad0410e0d8c0c33a09375861fbadae2588a98d3383856000604051611f1594939291906136fb565b60405180910390a2505050565b8173ffffffffffffffffffffffffffffffffffffffff168373ffffffffffffffffffffffffffffffffffffffff161415611f91576040517f08c379a0000000000000000000000000000000000000000000000000000000008152600401611f88906138cf565b60405180910390fd5b80600560008573ffffffffffffffffffffffffffffffffffffffff1673ffffffffffffffffffffffffffffffffffffffff16815260200190815260200160002060008473ffffffffffffffffffffffffffffffffffffffff1673ffffffffffffffffffffffffffffffffffffffff16815260200190815260200160002060006101000a81548160ff0219169083151502179055508173ffffffffffffffffffffffffffffffffffffffff168373ffffffffffffffffffffffffffffffffffffffff167f17307eab39ab6107e8899845ad3d59bd9653f200f220920489ca2b5937696c318360405161208291906137d7565b60405180910390a3505050565b61209a848484611968565b6120a68484848461238c565b6120e5576040517f08c379a00000000000000000000000000000000000000000000000000000000081526004016120dc9061382f565b60405180910390fd5b50505050565b606060405180602001604052806000815250905090565b606061210d826117b9565b60006121176120eb565b905060008151116121375760405180602001604052806000815250612162565b8061214184612523565b604051602001612152929190613685565b6040516020818303038152906040525b915050919050565b600081836121789190613da7565b905092915050565b6000818361218e9190613d76565b905092915050565b600081836121a49190613e01565b905092915050565b61222f846323b872dd60e01b8585856040516024016121cd939291906136c4565b604051602081830303815290604052907bffffffffffffffffffffffffffffffffffffffffffffffffffffffff19166020820180517bffffffffffffffffffffffffffffffffffffffffffffffffffffffff83818316178352505050506126d0565b50505050565b6122b68363a9059cbb60e01b848460405160240161225492919061378c565b604051602081830303815290604052907bffffffffffffffffffffffffffffffffffffffffffffffffffffffff19166020820180517bffffffffffffffffffffffffffffffffffffffffffffffffffffffff83818316178352505050506126d0565b505050565b60008073ffffffffffffffffffffffffffffffffffffffff166002600084815260200190815260200160002060009054906101000a900473ffffffffffffffffffffffffffffffffffffffff1673ffffffffffffffffffffffffffffffffffffffff1614159050919050565b505050565b505050565b61233b8383612797565b612348600084848461238c565b612387576040517f08c379a000000000000000000000000000000000000000000000000000000000815260040161237e9061382f565b60405180910390fd5b505050565b60006123ad8473ffffffffffffffffffffffffffffffffffffffff16612971565b15612516578373ffffffffffffffffffffffffffffffffffffffff1663150b7a026123d6611804565b8786866040518563ffffffff1660e01b81526004016123f89493929190613740565b602060405180830381600087803b15801561241257600080fd5b505af192505050801561244357506040513d601f19601f820116820180604052508101906124409190613118565b60015b6124c6573d8060008114612473576040519150601f19603f3d011682016040523d82523d6000602084013e612478565b606091505b506000815114156124be576040517f08c379a00000000000000000000000000000000000000000000000000000000081526004016124b59061382f565b60405180910390fd5b805181602001fd5b63150b7a0260e01b7bffffffffffffffffffffffffffffffffffffffffffffffffffffffff1916817bffffffffffffffffffffffffffffffffffffffffffffffffffffffff19161491505061251b565b600190505b949350505050565b6060600082141561256b576040518060400160405280600181526020017f300000000000000000000000000000000000000000000000000000000000000081525090506126cb565b600082905060005b6000821461259d57808061258690613f72565b915050600a826125969190613d76565b9150612573565b60008167ffffffffffffffff8111156125df577f4e487b7100000000000000000000000000000000000000000000000000000000600052604160045260246000fd5b6040519080825280601f01601f1916602001820160405280156126115781602001600182028036833780820191505090505b5090505b600085146126c45760018261262a9190613e01565b9150600a856126399190613fbb565b60306126459190613d20565b60f81b818381518110612681577f4e487b7100000000000000000000000000000000000000000000000000000000600052603260045260246000fd5b60200101907effffffffffffffffffffffffffffffffffffffffffffffffffffffffffffff1916908160001a905350600a856126bd9190613d76565b9450612615565b8093505050505b919050565b6000612732826040518060400160405280602081526020017f5361666545524332303a206c6f772d6c6576656c2063616c6c206661696c65648152508573ffffffffffffffffffffffffffffffffffffffff166129949092919063ffffffff16565b9050600081511115612792578080602001905181019061275291906130c6565b612791576040517f08c379a000000000000000000000000000000000000000000000000000000000815260040161278890613a4f565b60405180910390fd5b5b505050565b600073ffffffffffffffffffffffffffffffffffffffff168273ffffffffffffffffffffffffffffffffffffffff161415612807576040517f08c379a00000000000000000000000000000000000000000000000000000000081526004016127fe9061398f565b60405180910390fd5b612810816122bb565b15612850576040517f08c379a00000000000000000000000000000000000000000000000000000000081526004016128479061388f565b60405180910390fd5b61285c60008383612327565b6001600360008473ffffffffffffffffffffffffffffffffffffffff1673ffffffffffffffffffffffffffffffffffffffff16815260200190815260200160002060008282546128ac9190613d20565b92505081905550816002600083815260200190815260200160002060006101000a81548173ffffffffffffffffffffffffffffffffffffffff021916908373ffffffffffffffffffffffffffffffffffffffff160217905550808273ffffffffffffffffffffffffffffffffffffffff16600073ffffffffffffffffffffffffffffffffffffffff167fddf252ad1be2c89b69c2b068fc378daa952ba7f163c4a11628f55a4df523b3ef60405160405180910390a461296d6000838361232c565b5050565b6000808273ffffffffffffffffffffffffffffffffffffffff163b119050919050565b60606129a384846000856129ac565b90509392505050565b6060824710156129f1576040517f08c379a00000000000000000000000000000000000000000000000000000000081526004016129e8906138ef565b60405180910390fd5b6129fa85612971565b612a39576040517f08c379a0000000000000000000000000000000000000000000000000000000008152600401612a3090613a0f565b60405180910390fd5b6000808673ffffffffffffffffffffffffffffffffffffffff168587604051612a62919061366e565b60006040518083038185875af1925050503d8060008114612a9f576040519150601f19603f3d011682016040523d82523d6000602084013e612aa4565b606091505b5091509150612ab4828286612ac0565b92505050949350505050565b60608315612ad057829050612b20565b600083511115612ae35782518084602001fd5b816040517f08c379a0000000000000000000000000000000000000000000000000000000008152600401612b17919061380d565b60405180910390fd5b9392505050565b6040518060a0016040528060008152602001600073ffffffffffffffffffffffffffffffffffffffff168152602001600073ffffffffffffffffffffffffffffffffffffffff168152602001600081526020016000151581525090565b828054612b9090613f0f565b90600052602060002090601f016020900481019282612bb25760008555612bf9565b82601f10612bcb57805160ff1916838001178555612bf9565b82800160010185558215612bf9579182015b82811115612bf8578251825591602001919060010190612bdd565b5b509050612c069190612c0a565b5090565b5b80821115612c23576000816000905550600101612c0b565b5090565b6000612c3a612c3584613c10565b613beb565b90508083825260208201905082856020860282011115612c5957600080fd5b60005b85811015612c895781612c6f8882612d3d565b845260208401935060208301925050600181019050612c5c565b5050509392505050565b6000612ca6612ca184613c3c565b613beb565b90508083825260208201905082856020860282011115612cc557600080fd5b60005b85811015612cf55781612cdb8882612e6e565b845260208401935060208301925050600181019050612cc8565b5050509392505050565b6000612d12612d0d84613c68565b613beb565b905082815260208101848484011115612d2a57600080fd5b612d35848285613ecd565b509392505050565b600081359050612d4c81614601565b92915050565b600082601f830112612d6357600080fd5b8135612d73848260208601612c27565b91505092915050565b60008083601f840112612d8e57600080fd5b8235905067ffffffffffffffff811115612da757600080fd5b602083019150836020820283011115612dbf57600080fd5b9250929050565b600082601f830112612dd757600080fd5b8135612de7848260208601612c93565b91505092915050565b600081359050612dff81614618565b92915050565b600081519050612e1481614618565b92915050565b600081359050612e298161462f565b92915050565b600081519050612e3e8161462f565b92915050565b600082601f830112612e5557600080fd5b8135612e65848260208601612cff565b91505092915050565b600081359050612e7d81614646565b92915050565b600060208284031215612e9557600080fd5b6000612ea384828501612d3d565b91505092915050565b60008060408385031215612ebf57600080fd5b6000612ecd85828601612d3d565b9250506020612ede85828601612d3d565b9150509250929050565b600080600060608486031215612efd57600080fd5b6000612f0b86828701612d3d565b9350506020612f1c86828701612d3d565b9250506040612f2d86828701612e6e565b9150509250925092565b60008060008060808587031215612f4d57600080fd5b6000612f5b87828801612d3d565b9450506020612f6c87828801612d3d565b9350506040612f7d87828801612e6e565b925050606085013567ffffffffffffffff811115612f9a57600080fd5b612fa687828801612e44565b91505092959194509250565b60008060408385031215612fc557600080fd5b6000612fd385828601612d3d565b9250506020612fe485828601612df0565b9150509250929050565b6000806040838503121561300157600080fd5b600061300f85828601612d3d565b925050602061302085828601612e6e565b9150509250929050565b6000806000806060858703121561304057600080fd5b600085013567ffffffffffffffff81111561305a57600080fd5b61306687828801612d7c565b9450945050602085013567ffffffffffffffff81111561308557600080fd5b61309187828801612dc6565b925050604085013567ffffffffffffffff8111156130ae57600080fd5b6130ba87828801612d52565b91505092959194509250565b6000602082840312156130d857600080fd5b60006130e684828501612e05565b91505092915050565b60006020828403121561310157600080fd5b600061310f84828501612e1a565b91505092915050565b60006020828403121561312a57600080fd5b600061313884828501612e2f565b91505092915050565b60006020828403121561315357600080fd5b600061316184828501612e6e565b91505092915050565b600061317683836135e8565b60a08301905092915050565b61318b81613e35565b82525050565b61319a81613e35565b82525050565b60006131ab82613ca9565b6131b58185613cd7565b93506131c083613c99565b8060005b838110156131f15781516131d8888261316a565b97506131e383613cca565b9250506001810190506131c4565b5085935050505092915050565b61320781613e47565b82525050565b61321681613e47565b82525050565b600061322782613cb4565b6132318185613ce8565b9350613241818560208601613edc565b61324a816140a8565b840191505092915050565b600061326082613cb4565b61326a8185613cf9565b935061327a818560208601613edc565b80840191505092915050565b61328f81613ea9565b82525050565b60006132a18385613d04565b93506132ae838584613ecd565b6132b7836140a8565b840190509392505050565b60006132cd82613cbf565b6132d78185613d04565b93506132e7818560208601613edc565b6132f0816140a8565b840191505092915050565b600061330682613cbf565b6133108185613d15565b9350613320818560208601613edc565b80840191505092915050565b6000613339603283613d04565b9150613344826140b9565b604082019050919050565b600061335c602683613d04565b915061336782614108565b604082019050919050565b600061337f602583613d04565b915061338a82614157565b604082019050919050565b60006133a2601c83613d04565b91506133ad826141a6565b602082019050919050565b60006133c5602483613d04565b91506133d0826141cf565b604082019050919050565b60006133e8601983613d04565b91506133f38261421e565b602082019050919050565b600061340b602683613d04565b915061341682614247565b604082019050919050565b600061342e603383613d04565b915061343982614296565b604082019050919050565b6000613451602983613d04565b915061345c826142e5565b604082019050919050565b6000613474602e83613d04565b915061347f82614334565b604082019050919050565b6000613497603e83613d04565b91506134a282614383565b604082019050919050565b60006134ba602083613d04565b91506134c5826143d2565b602082019050919050565b60006134dd602083613d04565b91506134e8826143fb565b602082019050919050565b6000613500601883613d04565b915061350b82614424565b602082019050919050565b6000613523602183613d04565b915061352e8261444d565b604082019050919050565b6000613546601d83613d04565b91506135518261449c565b602082019050919050565b6000613569602e83613d04565b9150613574826144c5565b604082019050919050565b600061358c602a83613d04565b915061359782614514565b604082019050919050565b60006135af602e83613d04565b91506135ba82614563565b604082019050919050565b60006135d2602383613d04565b91506135dd826145b2565b604082019050919050565b60a0820160008201516135fe6000850182613650565b5060208201516136116020850182613182565b5060408201516136246040850182613182565b5060608201516136376060850182613650565b50608082015161364a60808501826131fe565b50505050565b61365981613e9f565b82525050565b61366881613e9f565b82525050565b600061367a8284613255565b915081905092915050565b600061369182856132fb565b915061369d82846132fb565b91508190509392505050565b60006020820190506136be6000830184613191565b92915050565b60006060820190506136d96000830186613191565b6136e66020830185613191565b6136f3604083018461365f565b949350505050565b60006080820190506137106000830187613191565b61371d6020830186613191565b61372a604083018561365f565b613737606083018461320d565b95945050505050565b60006080820190506137556000830187613191565b6137626020830186613191565b61376f604083018561365f565b8181036060830152613781818461321c565b905095945050505050565b60006040820190506137a16000830185613191565b6137ae602083018461365f565b9392505050565b600060208201905081810360008301526137cf81846131a0565b905092915050565b60006020820190506137ec600083018461320d565b92915050565b60006020820190506138076000830184613286565b92915050565b6000602082019050818103600083015261382781846132c2565b905092915050565b600060208201905081810360008301526138488161332c565b9050919050565b600060208201905081810360008301526138688161334f565b9050919050565b6000602082019050818103600083015261388881613372565b9050919050565b600060208201905081810360008301526138a881613395565b9050919050565b600060208201905081810360008301526138c8816133b8565b9050919050565b600060208201905081810360008301526138e8816133db565b9050919050565b60006020820190508181036000830152613908816133fe565b9050919050565b6000602082019050818103600083015261392881613421565b9050919050565b6000602082019050818103600083015261394881613444565b9050919050565b6000602082019050818103600083015261396881613467565b9050919050565b600060208201905081810360008301526139888161348a565b9050919050565b600060208201905081810360008301526139a8816134ad565b9050919050565b600060208201905081810360008301526139c8816134d0565b9050919050565b600060208201905081810360008301526139e8816134f3565b9050919050565b60006020820190508181036000830152613a0881613516565b9050919050565b60006020820190508181036000830152613a2881613539565b9050919050565b60006020820190508181036000830152613a488161355c565b9050919050565b60006020820190508181036000830152613a688161357f565b9050919050565b60006020820190508181036000830152613a88816135a2565b9050919050565b60006020820190508181036000830152613aa8816135c5565b9050919050565b6000602082019050613ac4600083018461365f565b92915050565b600060a082019050613adf600083018861365f565b613aec6020830187613191565b613af96040830186613191565b613b06606083018561365f565b613b13608083018461320d565b9695505050505050565b6000608082019050613b32600083018861365f565b613b3f6020830187613191565b8181036040830152613b52818587613295565b9050613b616060830184613191565b9695505050505050565b6000604082019050613b80600083018561365f565b613b8d602083018461365f565b9392505050565b60008083356001602003843603038112613bad57600080fd5b80840192508235915067ffffffffffffffff821115613bcb57600080fd5b602083019250600182023603831315613be357600080fd5b509250929050565b6000613bf5613c06565b9050613c018282613f41565b919050565b6000604051905090565b600067ffffffffffffffff821115613c2b57613c2a614079565b5b602082029050602081019050919050565b600067ffffffffffffffff821115613c5757613c56614079565b5b602082029050602081019050919050565b600067ffffffffffffffff821115613c8357613c82614079565b5b613c8c826140a8565b9050602081019050919050565b6000819050602082019050919050565b600081519050919050565b600081519050919050565b600081519050919050565b6000602082019050919050565b600082825260208201905092915050565b600082825260208201905092915050565b600081905092915050565b600082825260208201905092915050565b600081905092915050565b6000613d2b82613e9f565b9150613d3683613e9f565b9250827fffffffffffffffffffffffffffffffffffffffffffffffffffffffffffffffff03821115613d6b57613d6a613fec565b5b828201905092915050565b6000613d8182613e9f565b9150613d8c83613e9f565b925082613d9c57613d9b61401b565b5b828204905092915050565b6000613db282613e9f565b9150613dbd83613e9f565b9250817fffffffffffffffffffffffffffffffffffffffffffffffffffffffffffffffff0483118215151615613df657613df5613fec565b5b828202905092915050565b6000613e0c82613e9f565b9150613e1783613e9f565b925082821015613e2a57613e29613fec565b5b828203905092915050565b6000613e4082613e7f565b9050919050565b60008115159050919050565b60007fffffffff0000000000000000000000000000000000000000000000000000000082169050919050565b600073ffffffffffffffffffffffffffffffffffffffff82169050919050565b6000819050919050565b6000613eb482613ebb565b9050919050565b6000613ec682613e7f565b9050919050565b82818337600083830152505050565b60005b83811015613efa578082015181840152602081019050613edf565b83811115613f09576000848401525b50505050565b60006002820490506001821680613f2757607f821691505b60208210811415613f3b57613f3a61404a565b5b50919050565b613f4a826140a8565b810181811067ffffffffffffffff82111715613f6957613f68614079565b5b80604052505050565b6000613f7d82613e9f565b91507fffffffffffffffffffffffffffffffffffffffffffffffffffffffffffffffff821415613fb057613faf613fec565b5b600182019050919050565b6000613fc682613e9f565b9150613fd183613e9f565b925082613fe157613fe061401b565b5b828206905092915050565b7f4e487b7100000000000000000000000000000000000000000000000000000000600052601160045260246000fd5b7f4e487b7100000000000000000000000000000000000000000000000000000000600052601260045260246000fd5b7f4e487b7100000000000000000000000000000000000000000000000000000000600052602260045260246000fd5b7f4e487b7100000000000000000000000000000000000000000000000000000000600052604160045260246000fd5b6000601f19601f8301169050919050565b7f4552433732313a207472616e7366657220746f206e6f6e20455243373231526560008201527f63656976657220696d706c656d656e7465720000000000000000000000000000602082015250565b7f4f776e61626c653a206e6577206f776e657220697320746865207a65726f206160008201527f6464726573730000000000000000000000000000000000000000000000000000602082015250565b7f4552433732313a207472616e736665722066726f6d20696e636f72726563742060008201527f6f776e6572000000000000000000000000000000000000000000000000000000602082015250565b7f4552433732313a20746f6b656e20616c7265616479206d696e74656400000000600082015250565b7f4552433732313a207472616e7366657220746f20746865207a65726f2061646460008201527f7265737300000000000000000000000000000000000000000000000000000000602082015250565b7f4552433732313a20617070726f766520746f2063616c6c657200000000000000600082015250565b7f416464726573733a20696e73756666696369656e742062616c616e636520666f60008201527f722063616c6c0000000000000000000000000000000000000000000000000000602082015250565b7f4372656174684d61726b6574706c6163653a20726f79616c74792061626f766560008201527f20313030206973206e6f7420616c6c6f77656400000000000000000000000000602082015250565b7f4552433732313a2061646472657373207a65726f206973206e6f74206120766160008201527f6c6964206f776e65720000000000000000000000000000000000000000000000602082015250565b7f45524337323155524953746f726167653a2055524920736574206f66206e6f6e60008201527f6578697374656e7420746f6b656e000000000000000000000000000000000000602082015250565b7f4552433732313a20617070726f76652063616c6c6572206973206e6f7420746f60008201527f6b656e206f776e6572206e6f7220617070726f76656420666f7220616c6c0000602082015250565b7f4552433732313a206d696e7420746f20746865207a65726f2061646472657373600082015250565b7f4f776e61626c653a2063616c6c6572206973206e6f7420746865206f776e6572600082015250565b7f4552433732313a20696e76616c696420746f6b656e2049440000000000000000600082015250565b7f4552433732313a20617070726f76616c20746f2063757272656e74206f776e6560008201527f7200000000000000000000000000000000000000000000000000000000000000602082015250565b7f416464726573733a2063616c6c20746f206e6f6e2d636f6e7472616374000000600082015250565b7f437265617468204d61726b6574706c6163653a2063616e6e6f7420627579207960008201527f6f7572206f776e2061737365742e000000000000000000000000000000000000602082015250565b7f5361666545524332303a204552433230206f7065726174696f6e20646964206e60008201527f6f74207375636365656400000000000000000000000000000000000000000000602082015250565b7f4552433732313a2063616c6c6572206973206e6f7420746f6b656e206f776e6560008201527f72206e6f7220617070726f766564000000000000000000000000000000000000602082015250565b7f4372656174684d61726b6574706c6163653a2030206973206e6f7420616c6c6f60008201527f7765640000000000000000000000000000000000000000000000000000000000602082015250565b61460a81613e35565b811461461557600080fd5b50565b61462181613e47565b811461462c57600080fd5b50565b61463881613e53565b811461464357600080fd5b50565b61464f81613e9f565b811461465a57600080fd5b5056fea2646970667358221220f2a8435be162874c6b9a41da05a4d9e2a0d9fcaf03c3ba8c7ad678e18f495b7a64736f6c63430008040033",
    "linkReferences": {},
    "deployedLinkReferences": {}
}